{"abi":[{"type":"constructor","inputs":[{"name":"_agenticCommerce","type":"address","internalType":"address"},{"name":"_courtRelay","type":"address","internalType":"address"}],"stateMutability":"nonpayable"},{"type":"function","name":"VERDICT_ACCEPT","inputs":[],"outputs":[{"name":"","type":"uint8","internalType":"uint8"}],"stateMutability":"view"},{"type":"function","name":"VERDICT_REJECT","inputs":[],"outputs":[{"name":"","type":"uint8","internalType":"uint8"}],"stateMutability":"view"},{"type":"function","name":"VERDICT_UNDETERMINED","inputs":[],"outputs":[{"name":"","type":"uint8","internalType":"uint8"}],"stateMutability":"view"},{"type":"function","name":"agenticCommerce","inputs":[],"outputs":[{"name":"","type":"address","internalType":"address"}],"stateMutability":"view"},{"type":"function","name":"courtRelay","inputs":[],"outputs":[{"name":"","type":"address","internalType":"address"}],"stateMutability":"view"},{"type":"function","name":"deliverAIVerdict","inputs":[{"name":"jobId","type":"uint256","internalType":"uint256"},{"name":"verdict","type":"uint8","internalType":"uint8"},{"name":"reason","type":"bytes32","internalType":"bytes32"},{"name":"details","type":"string","internalType":"string"}],"outputs":[],"stateMutability":"nonpayable"},{"type":"function","name":"deliverEndorsement","inputs":[{"name":"jobId","type":"uint256","internalType":"uint256"},{"name":"verdict","type":"uint8","internalType":"uint8"},{"name":"reason","type":"bytes32","internalType":"bytes32"},{"name":"details","type":"string","internalType":"string"}],"outputs":[],"stateMutability":"nonpayable"},{"type":"function","name":"deliverVerdict","inputs":[{"name":"jobId","type":"uint256","internalType":"uint256"},{"name":"verdict","type":"uint8","internalType":"uint8"},{"name":"reason","type":"bytes32","internalType":"bytes32"},{"name":"details","type":"string","internalType":"string"}],"outputs":[],"stateMutability":"nonpayable"},{"type":"function","name":"deliverableToJob","inputs":[{"name":"","type":"bytes32","internalType":"bytes32"}],"outputs":[{"name":"","type":"uint256","internalType":"uint256"}],"stateMutability":"view"},{"type":"function","name":"evaluations","inputs":[{"name":"","type":"uint256","internalType":"uint256"}],"outputs":[{"name":"jobId","type":"uint256","internalType":"uint256"},{"name":"aiVerdict","type":"uint8","internalType":"uint8"},{"name":"aiReason","type":"bytes32","internalType":"bytes32"},{"name":"aiDetails","type":"string","internalType":"string"},{"name":"aiDelivered","type":"bool","internalType":"bool"},{"name":"endorsementVerdict","type":"uint8","internalType":"uint8"},{"name":"endorsementReason","type":"bytes32","internalType":"bytes32"},{"name":"endorsementDetails","type":"string","internalType":"string"},{"name":"endorsementDelivered","type":"bool","internalType":"bool"},{"name":"resolved","type":"bool","internalType":"bool"}],"stateMutability":"view"},{"type":"function","name":"getDetails","inputs":[{"name":"jobId","type":"uint256","internalType":"uint256"}],"outputs":[{"name":"aiDetails","type":"string","internalType":"string"},{"name":"endorsementDetails","type":"string","internalType":"string"}],"stateMutability":"view"},{"type":"function","name":"getEvaluation","inputs":[{"name":"jobId","type":"uint256","internalType":"uint256"}],"outputs":[{"name":"aiVerdict","type":"uint8","internalType":"uint8"},{"name":"aiDelivered","type":"bool","internalType":"bool"},{"name":"endorsementVerdict","type":"uint8","internalType":"uint8"},{"name":"endorsementDelivered","type":"bool","internalType":"bool"},{"name":"resolved","type":"bool","internalType":"bool"}],"stateMutability":"view"},{"type":"function","name":"isFullyResolved","inputs":[{"name":"jobId","type":"uint256","internalType":"uint256"}],"outputs":[{"name":"","type":"bool","internalType":"bool"}],"stateMutability":"view"},{"type":"function","name":"owner","inputs":[],"outputs":[{"name":"","type":"address","internalType":"address"}],"stateMutability":"view"},{"type":"function","name":"pendingSignals","inputs":[{"name":"jobId","type":"uint256","internalType":"uint256"}],"outputs":[{"name":"needsAI","type":"bool","internalType":"bool"},{"name":"needsEndorsement","type":"bool","internalType":"bool"}],"stateMutability":"view"},{"type":"function","name":"registerEvaluation","inputs":[{"name":"jobId","type":"uint256","internalType":"uint256"},{"name":"deliverable","type":"bytes32","internalType":"bytes32"}],"outputs":[],"stateMutability":"nonpayable"},{"type":"function","name":"resolveFromCourt","inputs":[{"name":"payload","type":"bytes","internalType":"bytes"}],"outputs":[],"stateMutability":"nonpayable"},{"type":"function","name":"setAgenticCommerce","inputs":[{"name":"_c","type":"address","internalType":"address"}],"outputs":[],"stateMutability":"nonpayable"},{"type":"function","name":"setCourtRelay","inputs":[{"name":"_relay","type":"address","internalType":"address"}],"outputs":[],"stateMutability":"nonpayable"},{"type":"event","name":"AIVerdictDelivered","inputs":[{"name":"jobId","type":"uint256","indexed":true,"internalType":"uint256"},{"name":"verdict","type":"uint8","indexed":false,"internalType":"uint8"},{"name":"reason","type":"bytes32","indexed":false,"internalType":"bytes32"}],"anonymous":false},{"type":"event","name":"EndorsementDelivered","inputs":[{"name":"jobId","type":"uint256","indexed":true,"internalType":"uint256"},{"name":"verdict","type":"uint8","indexed":false,"internalType":"uint8"},{"name":"reason","type":"bytes32","indexed":false,"internalType":"bytes32"}],"anonymous":false},{"type":"event","name":"EvaluationRequested","inputs":[{"name":"jobId","type":"uint256","indexed":true,"internalType":"uint256"},{"name":"deliverable","type":"bytes32","indexed":true,"internalType":"bytes32"}],"anonymous":false},{"type":"event","name":"JobResolved","inputs":[{"name":"jobId","type":"uint256","indexed":true,"internalType":"uint256"},{"name":"completed","type":"bool","indexed":false,"internalType":"bool"},{"name":"summary","type":"string","indexed":false,"internalType":"string"}],"anonymous":false}],"bytecode":{"object":"0x608060405234801561000f575f5ffd5b50604051612df7380380612df7833981810160405281019061003191906101c3565b5f73ffffffffffffffffffffffffffffffffffffffff168273ffffffffffffffffffffffffffffffffffffffff160361009f576040517f08c379a00000000000000000000000000000000000000000000000000000000081526004016100969061025b565b60405180910390fd5b335f5f6101000a81548173ffffffffffffffffffffffffffffffffffffffff021916908373ffffffffffffffffffffffffffffffffffffffff1602179055508160015f6101000a81548173ffffffffffffffffffffffffffffffffffffffff021916908373ffffffffffffffffffffffffffffffffffffffff1602179055508060025f6101000a81548173ffffffffffffffffffffffffffffffffffffffff021916908373ffffffffffffffffffffffffffffffffffffffff1602179055505050610279565b5f5ffd5b5f73ffffffffffffffffffffffffffffffffffffffff82169050919050565b5f61019282610169565b9050919050565b6101a281610188565b81146101ac575f5ffd5b50565b5f815190506101bd81610199565b92915050565b5f5f604083850312156101d9576101d8610165565b5b5f6101e6858286016101af565b92505060206101f7858286016101af565b9150509250929050565b5f82825260208201905092915050565b7f496e76616c696420636f6d6d65726365000000000000000000000000000000005f82015250565b5f610245601083610201565b915061025082610211565b602082019050919050565b5f6020820190508181035f83015261027281610239565b9050919050565b612b71806102865f395ff3fe608060405234801561000f575f5ffd5b506004361061011f575f3560e01c806386313ab8116100ab578063c1d369201161006f578063c1d369201461030c578063c23d4c851461032a578063d200e4541461035e578063e8130fde1461037c578063ee0856571461039a5761011f565b806386313ab8146102695780638da5cb5b146102855780638f1e54f7146102a3578063b0489c23146102bf578063b93a89f7146102db5761011f565b8063392a1cda116100f2578063392a1cda146101b05780634a4ee818146101cc5780636ad3a56a146101ea5780637825ee441461021b57806378bdf237146102395761011f565b806307e09ad6146101235780631159aa1d1461013f57806320f9ad6d1461015b57806333c63b1714610177575b5f5ffd5b61013d60048036038101906101389190611af5565b6103ca565b005b61015960048036038101906101549190611c1d565b61049b565b005b61017560048036038101906101709190611ca1565b6107d7565b005b610191600480360381019061018c9190611cdf565b61097e565b6040516101a79a99989796959493929190611dc1565b60405180910390f35b6101ca60048036038101906101c59190611c1d565b610b18565b005b6101d4610df0565b6040516101e19190611e78565b60405180910390f35b61020460048036038101906101ff9190611cdf565b610e15565b604051610212929190611e91565b60405180910390f35b610223610e59565b6040516102309190611eb8565b60405180910390f35b610253600480360381019061024e9190611ed1565b610e5e565b6040516102609190611efc565b60405180910390f35b610283600480360381019061027e9190611f6a565b610e73565b005b61028d611161565b60405161029a9190611e78565b60405180910390f35b6102bd60048036038101906102b89190611af5565b611185565b005b6102d960048036038101906102d49190611c1d565b611256565b005b6102f560048036038101906102f09190611cdf565b61152d565b604051610303929190611fb5565b60405180910390f35b61031461166a565b6040516103219190611e78565b60405180910390f35b610344600480360381019061033f9190611cdf565b61168f565b604051610355959493929190611fea565b60405180910390f35b610366611713565b6040516103739190611eb8565b60405180910390f35b610384611717565b6040516103919190611eb8565b60405180910390f35b6103b460048036038101906103af9190611cdf565b61171c565b6040516103c1919061203b565b60405180910390f35b5f5f9054906101000a900473ffffffffffffffffffffffffffffffffffffffff1673ffffffffffffffffffffffffffffffffffffffff163373ffffffffffffffffffffffffffffffffffffffff1614610458576040517f08c379a000000000000000000000000000000000000000000000000000000000815260040161044f9061209e565b60405180910390fd5b8060015f6101000a81548173ffffffffffffffffffffffffffffffffffffffff021916908373ffffffffffffffffffffffffffffffffffffffff16021790555050565b60025f9054906101000a900473ffffffffffffffffffffffffffffffffffffffff1673ffffffffffffffffffffffffffffffffffffffff163373ffffffffffffffffffffffffffffffffffffffff16148061054157505f5f9054906101000a900473ffffffffffffffffffffffffffffffffffffffff1673ffffffffffffffffffffffffffffffffffffffff163373ffffffffffffffffffffffffffffffffffffffff16145b610580576040517f08c379a000000000000000000000000000000000000000000000000000000000815260040161057790612106565b60405180910390fd5b5f60035f8781526020019081526020015f2090508060070160019054906101000a900460ff16156105e6576040517f08c379a00000000000000000000000000000000000000000000000000000000081526004016105dd9061216e565b60405180910390fd5b806004015f9054906101000a900460ff1661068b5784816001015f6101000a81548160ff021916908360ff16021790555083816002018190555082828260030191826106339291906123c0565b506001816004015f6101000a81548160ff021916908315150217905550857f0d6758bf8843a311985b15182e83e02a12eb75954be42c24bd0cb8538f1cb666868660405161068292919061248d565b60405180910390a25b806007015f9054906101000a900460ff1661076457848160040160016101000a81548160ff021916908360ff1602179055508381600501819055506040518060400160405280601281526020017f53696e676c652d7369676e616c206d6f6465000000000000000000000000000081525081600601908161070c91906124b4565b506001816007015f6101000a81548160ff021916908315150217905550857fe4763429fd460a58394f9408dbedfa5594e8a1a095521e5df44a9e877858fb5f868660405161075b92919061248d565b60405180910390a25b600260ff168560ff16036107c5576107c0865f85858080601f0160208091040260200160405190810160405280939291908181526020018383808284375f81840152601f19601f82011690508083019250505050505050611746565b6107cf565b6107ce86611934565b5b505050505050565b60025f9054906101000a900473ffffffffffffffffffffffffffffffffffffffff1673ffffffffffffffffffffffffffffffffffffffff163373ffffffffffffffffffffffffffffffffffffffff16148061087d57505f5f9054906101000a900473ffffffffffffffffffffffffffffffffffffffff1673ffffffffffffffffffffffffffffffffffffffff163373ffffffffffffffffffffffffffffffffffffffff16145b6108bc576040517f08c379a00000000000000000000000000000000000000000000000000000000081526004016108b390612106565b60405180910390fd5b60035f8381526020019081526020015f2060070160019054906101000a900460ff161561091e576040517f08c379a00000000000000000000000000000000000000000000000000000000081526004016109159061216e565b60405180910390fd5b8160035f8481526020019081526020015f205f01819055508160045f8381526020019081526020015f208190555080827f61e065d06b9b96b6668905dab535a729e388b0504a90f70dbe5ec8e63ee77d8360405160405180910390a35050565b6003602052805f5260405f205f91509050805f015490806001015f9054906101000a900460ff16908060020154908060030180546109bb906121f0565b80601f01602080910402602001604051908101604052809291908181526020018280546109e7906121f0565b8015610a325780601f10610a0957610100808354040283529160200191610a32565b820191905f5260205f20905b815481529060010190602001808311610a1557829003601f168201915b505050505090806004015f9054906101000a900460ff16908060040160019054906101000a900460ff1690806005015490806006018054610a72906121f0565b80601f0160208091040260200160405190810160405280929190818152602001828054610a9e906121f0565b8015610ae95780601f10610ac057610100808354040283529160200191610ae9565b820191905f5260205f20905b815481529060010190602001808311610acc57829003601f168201915b505050505090806007015f9054906101000a900460ff16908060070160019054906101000a900460ff1690508a565b60025f9054906101000a900473ffffffffffffffffffffffffffffffffffffffff1673ffffffffffffffffffffffffffffffffffffffff163373ffffffffffffffffffffffffffffffffffffffff161480610bbe57505f5f9054906101000a900473ffffffffffffffffffffffffffffffffffffffff1673ffffffffffffffffffffffffffffffffffffffff163373ffffffffffffffffffffffffffffffffffffffff16145b610bfd576040517f08c379a0000000000000000000000000000000000000000000000000000000008152600401610bf490612106565b60405180910390fd5b5f60035f8781526020019081526020015f209050806007015f9054906101000a900460ff1615610c62576040517f08c379a0000000000000000000000000000000000000000000000000000000008152600401610c59906125cd565b60405180910390fd5b8060070160019054906101000a900460ff1615610cb4576040517f08c379a0000000000000000000000000000000000000000000000000000000008152600401610cab9061216e565b60405180910390fd5b600160ff168560ff161480610ccf5750600260ff168560ff16145b610d0e576040517f08c379a0000000000000000000000000000000000000000000000000000000008152600401610d0590612635565b60405180910390fd5b848160040160016101000a81548160ff021916908360ff1602179055508381600501819055508282826006019182610d479291906123c0565b506001816007015f6101000a81548160ff021916908315150217905550857fe4763429fd460a58394f9408dbedfa5594e8a1a095521e5df44a9e877858fb5f8686604051610d9692919061248d565b60405180910390a2600260ff168560ff1603610dde57610dd8865f8585604051602001610dc49291906126b5565b604051602081830303815290604052611746565b50610de9565b610de786611934565b505b5050505050565b60025f9054906101000a900473ffffffffffffffffffffffffffffffffffffffff1681565b5f5f5f60035f8581526020019081526020015f209050806004015f9054906101000a900460ff1615816007015f9054906101000a900460ff16159250925050915091565b600181565b6004602052805f5260405f205f915090505481565b60025f9054906101000a900473ffffffffffffffffffffffffffffffffffffffff1673ffffffffffffffffffffffffffffffffffffffff163373ffffffffffffffffffffffffffffffffffffffff161480610f1957505f5f9054906101000a900473ffffffffffffffffffffffffffffffffffffffff1673ffffffffffffffffffffffffffffffffffffffff163373ffffffffffffffffffffffffffffffffffffffff16145b610f58576040517f08c379a0000000000000000000000000000000000000000000000000000000008152600401610f4f90612106565b60405180910390fd5b5f5f5f5f5f8686810190610f6c91906127c9565b9450945094509450945060018460ff160361103e575f60035f8781526020019081526020015f209050806004015f9054906101000a900460ff166110385783816001015f6101000a81548160ff021916908360ff16021790555082816002018190555081816003019081610fe091906124b4565b506001816004015f6101000a81548160ff021916908315150217905550857f0d6758bf8843a311985b15182e83e02a12eb75954be42c24bd0cb8538f1cb666858560405161102f92919061248d565b60405180910390a25b50611104565b60028460ff1603611103575f60035f8781526020019081526020015f209050806007015f9054906101000a900460ff1661110157838160040160016101000a81548160ff021916908360ff160217905550828160050181905550818160060190816110a991906124b4565b506001816007015f6101000a81548160ff021916908315150217905550857fe4763429fd460a58394f9408dbedfa5594e8a1a095521e5df44a9e877858fb5f85856040516110f892919061248d565b60405180910390a25b505b5b5f60035f8781526020019081526020015f2090508060070160019054906101000a900460ff1661115757600260ff168460ff160361114c57611147865f84611746565b611156565b61115586611934565b5b5b5050505050505050565b5f5f9054906101000a900473ffffffffffffffffffffffffffffffffffffffff1681565b5f5f9054906101000a900473ffffffffffffffffffffffffffffffffffffffff1673ffffffffffffffffffffffffffffffffffffffff163373ffffffffffffffffffffffffffffffffffffffff1614611213576040517f08c379a000000000000000000000000000000000000000000000000000000000815260040161120a9061209e565b60405180910390fd5b8060025f6101000a81548173ffffffffffffffffffffffffffffffffffffffff021916908373ffffffffffffffffffffffffffffffffffffffff16021790555050565b60025f9054906101000a900473ffffffffffffffffffffffffffffffffffffffff1673ffffffffffffffffffffffffffffffffffffffff163373ffffffffffffffffffffffffffffffffffffffff1614806112fc57505f5f9054906101000a900473ffffffffffffffffffffffffffffffffffffffff1673ffffffffffffffffffffffffffffffffffffffff163373ffffffffffffffffffffffffffffffffffffffff16145b61133b576040517f08c379a000000000000000000000000000000000000000000000000000000000815260040161133290612106565b60405180910390fd5b5f60035f8781526020019081526020015f209050806004015f9054906101000a900460ff16156113a0576040517f08c379a0000000000000000000000000000000000000000000000000000000008152600401611397906128a6565b60405180910390fd5b8060070160019054906101000a900460ff16156113f2576040517f08c379a00000000000000000000000000000000000000000000000000000000081526004016113e99061216e565b60405180910390fd5b600160ff168560ff16148061140d5750600260ff168560ff16145b61144c576040517f08c379a000000000000000000000000000000000000000000000000000000000815260040161144390612635565b60405180910390fd5b84816001015f6101000a81548160ff021916908360ff16021790555083816002018190555082828260030191826114849291906123c0565b506001816004015f6101000a81548160ff021916908315150217905550857f0d6758bf8843a311985b15182e83e02a12eb75954be42c24bd0cb8538f1cb66686866040516114d392919061248d565b60405180910390a2600260ff168560ff160361151b57611515865f85856040516020016115019291906128ea565b604051602081830303815290604052611746565b50611526565b61152486611934565b505b5050505050565b6060805f60035f8581526020019081526020015f2090508060030181600601818054611558906121f0565b80601f0160208091040260200160405190810160405280929190818152602001828054611584906121f0565b80156115cf5780601f106115a6576101008083540402835291602001916115cf565b820191905f5260205f20905b8154815290600101906020018083116115b257829003601f168201915b505050505091508080546115e2906121f0565b80601f016020809104026020016040519081016040528092919081815260200182805461160e906121f0565b80156116595780601f1061163057610100808354040283529160200191611659565b820191905f5260205f20905b81548152906001019060200180831161163c57829003601f168201915b505050505090509250925050915091565b60015f9054906101000a900473ffffffffffffffffffffffffffffffffffffffff1681565b5f5f5f5f5f5f60035f8881526020019081526020015f209050806001015f9054906101000a900460ff16816004015f9054906101000a900460ff168260040160019054906101000a900460ff16836007015f9054906101000a900460ff168460070160019054906101000a900460ff16955095509550955095505091939590929450565b5f81565b600281565b5f60035f8381526020019081526020015f2060070160019054906101000a900460ff169050919050565b5f60035f8581526020019081526020015f2090508060070160019054906101000a900460ff16156117ac576040517f08c379a00000000000000000000000000000000000000000000000000000000081526004016117a39061216e565b60405180910390fd5b60018160070160016101000a81548160ff0219169083151502179055505f81600201549050847f225fe6ddb43a4f83fcf14ad9079ba56c545d955364430d53cbf205610ace38f58585604051611803929190612911565b60405180910390a283156118a15760015f9054906101000a900473ffffffffffffffffffffffffffffffffffffffff1673ffffffffffffffffffffffffffffffffffffffff1663d75bbdf38683866040518463ffffffff1660e01b815260040161186f93929190612991565b5f604051808303815f87803b158015611886575f5ffd5b505af1158015611898573d5f5f3e3d5ffd5b5050505061192d565b60015f9054906101000a900473ffffffffffffffffffffffffffffffffffffffff1673ffffffffffffffffffffffffffffffffffffffff166341dd26f58683866040518463ffffffff1660e01b81526004016118ff93929190612991565b5f604051808303815f87803b158015611916575f5ffd5b505af1158015611928573d5f5f3e3d5ffd5b505050505b5050505050565b5f60035f8381526020019081526020015f2090508060070160019054906101000a900460ff16156119655750611a87565b806004015f9054906101000a900460ff1615806119905750806007015f9054906101000a900460ff16155b1561199b5750611a87565b5f600160ff16826001015f9054906101000a900460ff1660ff161490505f600160ff168360040160019054906101000a900460ff1660ff161490508180156119e05750805b15611a1d57611a188460018560030186600601604051602001611a04929190612a73565b604051602081830303815290604052611746565b611a83565b81611a5457611a4f845f85600301604051602001611a3b9190612acb565b604051602081830303815290604052611746565b611a82565b611a81845f85600601604051602001611a6d9190612b16565b604051602081830303815290604052611746565b5b5b5050505b50565b5f604051905090565b5f5ffd5b5f5ffd5b5f73ffffffffffffffffffffffffffffffffffffffff82169050919050565b5f611ac482611a9b565b9050919050565b611ad481611aba565b8114611ade575f5ffd5b50565b5f81359050611aef81611acb565b92915050565b5f60208284031215611b0a57611b09611a93565b5b5f611b1784828501611ae1565b91505092915050565b5f819050919050565b611b3281611b20565b8114611b3c575f5ffd5b50565b5f81359050611b4d81611b29565b92915050565b5f60ff82169050919050565b611b6881611b53565b8114611b72575f5ffd5b50565b5f81359050611b8381611b5f565b92915050565b5f819050919050565b611b9b81611b89565b8114611ba5575f5ffd5b50565b5f81359050611bb681611b92565b92915050565b5f5ffd5b5f5ffd5b5f5ffd5b5f5f83601f840112611bdd57611bdc611bbc565b5b8235905067ffffffffffffffff811115611bfa57611bf9611bc0565b5b602083019150836001820283011115611c1657611c15611bc4565b5b9250929050565b5f5f5f5f5f60808688031215611c3657611c35611a93565b5b5f611c4388828901611b3f565b9550506020611c5488828901611b75565b9450506040611c6588828901611ba8565b935050606086013567ffffffffffffffff811115611c8657611c85611a97565b5b611c9288828901611bc8565b92509250509295509295909350565b5f5f60408385031215611cb757611cb6611a93565b5b5f611cc485828601611b3f565b9250506020611cd585828601611ba8565b9150509250929050565b5f60208284031215611cf457611cf3611a93565b5b5f611d0184828501611b3f565b91505092915050565b611d1381611b20565b82525050565b611d2281611b53565b82525050565b611d3181611b89565b82525050565b5f81519050919050565b5f82825260208201905092915050565b8281835e5f83830152505050565b5f601f19601f8301169050919050565b5f611d7982611d37565b611d838185611d41565b9350611d93818560208601611d51565b611d9c81611d5f565b840191505092915050565b5f8115159050919050565b611dbb81611da7565b82525050565b5f61014082019050611dd55f83018d611d0a565b611de2602083018c611d19565b611def604083018b611d28565b8181036060830152611e01818a611d6f565b9050611e106080830189611db2565b611e1d60a0830188611d19565b611e2a60c0830187611d28565b81810360e0830152611e3c8186611d6f565b9050611e4c610100830185611db2565b611e5a610120830184611db2565b9b9a5050505050505050505050565b611e7281611aba565b82525050565b5f602082019050611e8b5f830184611e69565b92915050565b5f604082019050611ea45f830185611db2565b611eb16020830184611db2565b9392505050565b5f602082019050611ecb5f830184611d19565b92915050565b5f60208284031215611ee657611ee5611a93565b5b5f611ef384828501611ba8565b91505092915050565b5f602082019050611f0f5f830184611d0a565b92915050565b5f5f83601f840112611f2a57611f29611bbc565b5b8235905067ffffffffffffffff811115611f4757611f46611bc0565b5b602083019150836001820283011115611f6357611f62611bc4565b5b9250929050565b5f5f60208385031215611f8057611f7f611a93565b5b5f83013567ffffffffffffffff811115611f9d57611f9c611a97565b5b611fa985828601611f15565b92509250509250929050565b5f6040820190508181035f830152611fcd8185611d6f565b90508181036020830152611fe18184611d6f565b90509392505050565b5f60a082019050611ffd5f830188611d19565b61200a6020830187611db2565b6120176040830186611d19565b6120246060830185611db2565b6120316080830184611db2565b9695505050505050565b5f60208201905061204e5f830184611db2565b92915050565b7f4e6f74206f776e657200000000000000000000000000000000000000000000005f82015250565b5f612088600983611d41565b915061209382612054565b602082019050919050565b5f6020820190508181035f8301526120b58161207c565b9050919050565b7f4e6f7420617574686f72697a65640000000000000000000000000000000000005f82015250565b5f6120f0600e83611d41565b91506120fb826120bc565b602082019050919050565b5f6020820190508181035f83015261211d816120e4565b9050919050565b7f416c7265616479207265736f6c766564000000000000000000000000000000005f82015250565b5f612158601083611d41565b915061216382612124565b602082019050919050565b5f6020820190508181035f8301526121858161214c565b9050919050565b5f82905092915050565b7f4e487b71000000000000000000000000000000000000000000000000000000005f52604160045260245ffd5b7f4e487b71000000000000000000000000000000000000000000000000000000005f52602260045260245ffd5b5f600282049050600182168061220757607f821691505b60208210810361221a576122196121c3565b5b50919050565b5f819050815f5260205f209050919050565b5f6020601f8301049050919050565b5f82821b905092915050565b5f6008830261227c7fffffffffffffffffffffffffffffffffffffffffffffffffffffffffffffffff82612241565b6122868683612241565b95508019841693508086168417925050509392505050565b5f819050919050565b5f6122c16122bc6122b784611b20565b61229e565b611b20565b9050919050565b5f819050919050565b6122da836122a7565b6122ee6122e6826122c8565b84845461224d565b825550505050565b5f5f905090565b6123056122f6565b6123108184846122d1565b505050565b5b81811015612333576123285f826122fd565b600181019050612316565b5050565b601f8211156123785761234981612220565b61235284612232565b81016020851015612361578190505b61237561236d85612232565b830182612315565b50505b505050565b5f82821c905092915050565b5f6123985f198460080261237d565b1980831691505092915050565b5f6123b08383612389565b9150826002028217905092915050565b6123ca838361218c565b67ffffffffffffffff8111156123e3576123e2612196565b5b6123ed82546121f0565b6123f8828285612337565b5f601f831160018114612425575f8415612413578287013590505b61241d85826123a5565b865550612484565b601f19841661243386612220565b5f5b8281101561245a57848901358255600182019150602085019450602081019050612435565b868310156124775784890135612473601f891682612389565b8355505b6001600288020188555050505b50505050505050565b5f6040820190506124a05f830185611d19565b6124ad6020830184611d28565b9392505050565b6124bd82611d37565b67ffffffffffffffff8111156124d6576124d5612196565b5b6124e082546121f0565b6124eb828285612337565b5f60209050601f83116001811461251c575f841561250a578287015190505b61251485826123a5565b86555061257b565b601f19841661252a86612220565b5f5b828110156125515784890151825560018201915060208501945060208101905061252c565b8683101561256e578489015161256a601f891682612389565b8355505b6001600288020188555050505b505050505050565b7f456e646f7273656d656e7420616c72656164792064656c6976657265640000005f82015250565b5f6125b7601d83611d41565b91506125c282612583565b602082019050919050565b5f6020820190508181035f8301526125e4816125ab565b9050919050565b7f496e76616c6964207665726469637400000000000000000000000000000000005f82015250565b5f61261f600f83611d41565b915061262a826125eb565b602082019050919050565b5f6020820190508181035f83015261264c81612613565b9050919050565b7f456e646f7273656d656e74206d697373696e673a200000000000000000000000815250565b5f81905092915050565b828183375f83830152505050565b5f61269c8385612679565b93506126a9838584612683565b82840190509392505050565b5f6126bf82612653565b6015820191506126d0828486612691565b91508190509392505050565b5f5ffd5b6126e982611d5f565b810181811067ffffffffffffffff8211171561270857612707612196565b5b80604052505050565b5f61271a611a8a565b905061272682826126e0565b919050565b5f67ffffffffffffffff82111561274557612744612196565b5b61274e82611d5f565b9050602081019050919050565b5f61276d6127688461272b565b612711565b905082815260208101848484011115612789576127886126dc565b5b612794848285612683565b509392505050565b5f82601f8301126127b0576127af611bbc565b5b81356127c084826020860161275b565b91505092915050565b5f5f5f5f5f60a086880312156127e2576127e1611a93565b5b5f6127ef88828901611b3f565b955050602061280088828901611b75565b945050604061281188828901611b75565b935050606061282288828901611ba8565b925050608086013567ffffffffffffffff81111561284357612842611a97565b5b61284f8882890161279c565b9150509295509295909350565b7f4149207665726469637420616c72656164792064656c697665726564000000005f82015250565b5f612890601c83611d41565b915061289b8261285c565b602082019050919050565b5f6020820190508181035f8301526128bd81612884565b9050919050565b7f4149206a7572792072656a65637465643a200000000000000000000000000000815250565b5f6128f4826128c4565b601282019150612905828486612691565b91508190509392505050565b5f6040820190506129245f830185611db2565b81810360208301526129368184611d6f565b90509392505050565b5f81519050919050565b5f82825260208201905092915050565b5f6129638261293f565b61296d8185612949565b935061297d818560208601611d51565b61298681611d5f565b840191505092915050565b5f6060820190506129a45f830186611d0a565b6129b16020830185611d28565b81810360408301526129c38184612959565b9050949350505050565b5f81546129d9816121f0565b6129e38186612679565b9450600182165f81146129fd5760018114612a1257612a44565b60ff1983168652811515820286019350612a44565b612a1b85612220565b5f5b83811015612a3c57815481890152600182019150602081019050612a1d565b838801955050505b50505092915050565b7f207c20456e646f7273656d656e743a2000000000000000000000000000000000815250565b5f612a7e82856129cd565b9150612a8982612a4d565b601082019150612a9982846129cd565b91508190509392505050565b7f41492072656a65637465643a2000000000000000000000000000000000000000815250565b5f612ad582612aa5565b600d82019150612ae582846129cd565b915081905092915050565b7f456e646f7273656d656e742072656a65637465643a2000000000000000000000815250565b5f612b2082612af0565b601682019150612b3082846129cd565b91508190509291505056fea26469706673582212207efeeeabcc764633db0e50e5e7cb4a73aac007adc98327446b0a5ea1ddc6c22d64736f6c634300081c0033","linkReferences":{}},"methodIdentifiers":{"VERDICT_ACCEPT()":"7825ee44","VERDICT_REJECT()":"e8130fde","VERDICT_UNDETERMINED()":"d200e454","agenticCommerce()":"c1d36920","courtRelay()":"4a4ee818","deliverAIVerdict(uint256,uint8,bytes32,string)":"b0489c23","deliverEndorsement(uint256,uint8,bytes32,string)":"392a1cda","deliverVerdict(uint256,uint8,bytes32,string)":"1159aa1d","deliverableToJob(bytes32)":"78bdf237","evaluations(uint256)":"33c63b17","getDetails(uint256)":"b93a89f7","getEvaluation(uint256)":"c23d4c85","isFullyResolved(uint256)":"ee085657","owner()":"8da5cb5b","pendingSignals(uint256)":"6ad3a56a","registerEvaluation(uint256,bytes32)":"20f9ad6d","resolveFromCourt(bytes)":"86313ab8","setAgenticCommerce(address)":"07e09ad6","setCourtRelay(address)":"8f1e54f7"},"id":0}