{"abi":[{"type":"constructor","inputs":[{"name":"_agenticCommerce","type":"address","internalType":"address"},{"name":"_courtRelay","type":"address","internalType":"address"}],"stateMutability":"nonpayable"},{"type":"function","name":"VERDICT_ACCEPT","inputs":[],"outputs":[{"name":"","type":"uint8","internalType":"uint8"}],"stateMutability":"view"},{"type":"function","name":"VERDICT_REJECT","inputs":[],"outputs":[{"name":"","type":"uint8","internalType":"uint8"}],"stateMutability":"view"},{"type":"function","name":"agenticCommerce","inputs":[],"outputs":[{"name":"","type":"address","internalType":"address"}],"stateMutability":"view"},{"type":"function","name":"courtRelay","inputs":[],"outputs":[{"name":"","type":"address","internalType":"address"}],"stateMutability":"view"},{"type":"function","name":"deliverVerdict","inputs":[{"name":"jobId","type":"uint256","internalType":"uint256"},{"name":"verdict","type":"uint8","internalType":"uint8"},{"name":"reason","type":"bytes32","internalType":"bytes32"},{"name":"details","type":"string","internalType":"string"}],"outputs":[],"stateMutability":"nonpayable"},{"type":"function","name":"deliverableToJob","inputs":[{"name":"","type":"bytes32","internalType":"bytes32"}],"outputs":[{"name":"","type":"uint256","internalType":"uint256"}],"stateMutability":"view"},{"type":"function","name":"evaluations","inputs":[{"name":"","type":"uint256","internalType":"uint256"}],"outputs":[{"name":"jobId","type":"uint256","internalType":"uint256"},{"name":"verdict","type":"uint8","internalType":"uint8"},{"name":"reason","type":"bytes32","internalType":"bytes32"},{"name":"details","type":"string","internalType":"string"},{"name":"delivered","type":"bool","internalType":"bool"}],"stateMutability":"view"},{"type":"function","name":"getEvaluation","inputs":[{"name":"jobId","type":"uint256","internalType":"uint256"}],"outputs":[{"name":"verdict","type":"uint8","internalType":"uint8"},{"name":"reason","type":"bytes32","internalType":"bytes32"},{"name":"details","type":"string","internalType":"string"},{"name":"delivered","type":"bool","internalType":"bool"}],"stateMutability":"view"},{"type":"function","name":"owner","inputs":[],"outputs":[{"name":"","type":"address","internalType":"address"}],"stateMutability":"view"},{"type":"function","name":"registerEvaluation","inputs":[{"name":"jobId","type":"uint256","internalType":"uint256"},{"name":"deliverable","type":"bytes32","internalType":"bytes32"}],"outputs":[],"stateMutability":"nonpayable"},{"type":"function","name":"resolveFromCourt","inputs":[{"name":"payload","type":"bytes","internalType":"bytes"}],"outputs":[],"stateMutability":"nonpayable"},{"type":"function","name":"setAgenticCommerce","inputs":[{"name":"_commerce","type":"address","internalType":"address"}],"outputs":[],"stateMutability":"nonpayable"},{"type":"function","name":"setCourtRelay","inputs":[{"name":"_relay","type":"address","internalType":"address"}],"outputs":[],"stateMutability":"nonpayable"},{"type":"event","name":"EvaluationRequested","inputs":[{"name":"jobId","type":"uint256","indexed":true,"internalType":"uint256"},{"name":"deliverable","type":"bytes32","indexed":true,"internalType":"bytes32"}],"anonymous":false},{"type":"event","name":"VerdictDelivered","inputs":[{"name":"jobId","type":"uint256","indexed":true,"internalType":"uint256"},{"name":"verdict","type":"uint8","indexed":false,"internalType":"uint8"},{"name":"reason","type":"bytes32","indexed":false,"internalType":"bytes32"}],"anonymous":false},{"type":"event","name":"VerdictExecuted","inputs":[{"name":"jobId","type":"uint256","indexed":true,"internalType":"uint256"},{"name":"completed","type":"bool","indexed":false,"internalType":"bool"}],"anonymous":false}],"bytecode":{"object":"0x608060405234801561000f575f5ffd5b50604051612078380380612078833981810160405281019061003191906101c3565b5f73ffffffffffffffffffffffffffffffffffffffff168273ffffffffffffffffffffffffffffffffffffffff160361009f576040517f08c379a00000000000000000000000000000000000000000000000000000000081526004016100969061025b565b60405180910390fd5b335f5f6101000a81548173ffffffffffffffffffffffffffffffffffffffff021916908373ffffffffffffffffffffffffffffffffffffffff1602179055508160015f6101000a81548173ffffffffffffffffffffffffffffffffffffffff021916908373ffffffffffffffffffffffffffffffffffffffff1602179055508060025f6101000a81548173ffffffffffffffffffffffffffffffffffffffff021916908373ffffffffffffffffffffffffffffffffffffffff1602179055505050610279565b5f5ffd5b5f73ffffffffffffffffffffffffffffffffffffffff82169050919050565b5f61019282610169565b9050919050565b6101a281610188565b81146101ac575f5ffd5b50565b5f815190506101bd81610199565b92915050565b5f5f604083850312156101d9576101d8610165565b5b5f6101e6858286016101af565b92505060206101f7858286016101af565b9150509250929050565b5f82825260208201905092915050565b7f496e76616c696420636f6d6d65726365000000000000000000000000000000005f82015250565b5f610245601083610201565b915061025082610211565b602082019050919050565b5f6020820190508181035f83015261027281610239565b9050919050565b611df2806102865f395ff3fe608060405234801561000f575f5ffd5b50600436106100cd575f3560e01c806378bdf2371161008a5780638f1e54f7116100645780638f1e54f7146101ff578063c1d369201461021b578063c23d4c8514610239578063e8130fde1461026c576100cd565b806378bdf2371461019557806386313ab8146101c55780638da5cb5b146101e1576100cd565b806307e09ad6146100d15780631159aa1d146100ed57806320f9ad6d1461010957806333c63b17146101255780634a4ee818146101595780637825ee4414610177575b5f5ffd5b6100eb60048036038101906100e6919061109e565b61028a565b005b610107600480360381019061010291906111c6565b61035b565b005b610123600480360381019061011e919061124a565b610705565b005b61013f600480360381019061013a9190611288565b610967565b60405161015095949392919061136a565b60405180910390f35b610161610a37565b60405161016e91906113d1565b60405180910390f35b61017f610a5c565b60405161018c91906113ea565b60405180910390f35b6101af60048036038101906101aa9190611403565b610a61565b6040516101bc919061142e565b60405180910390f35b6101df60048036038101906101da919061149c565b610a76565b005b6101e9610e36565b6040516101f691906113d1565b60405180910390f35b6102196004803603810190610214919061109e565b610e5a565b005b610223610f2b565b60405161023091906113d1565b60405180910390f35b610253600480360381019061024e9190611288565b610f50565b60405161026394939291906114e7565b60405180910390f35b61027461102e565b60405161028191906113ea565b60405180910390f35b5f5f9054906101000a900473ffffffffffffffffffffffffffffffffffffffff1673ffffffffffffffffffffffffffffffffffffffff163373ffffffffffffffffffffffffffffffffffffffff1614610318576040517f08c379a000000000000000000000000000000000000000000000000000000000815260040161030f9061157b565b60405180910390fd5b8060015f6101000a81548173ffffffffffffffffffffffffffffffffffffffff021916908373ffffffffffffffffffffffffffffffffffffffff16021790555050565b60025f9054906101000a900473ffffffffffffffffffffffffffffffffffffffff1673ffffffffffffffffffffffffffffffffffffffff163373ffffffffffffffffffffffffffffffffffffffff16148061040157505f5f9054906101000a900473ffffffffffffffffffffffffffffffffffffffff1673ffffffffffffffffffffffffffffffffffffffff163373ffffffffffffffffffffffffffffffffffffffff16145b610440576040517f08c379a0000000000000000000000000000000000000000000000000000000008152600401610437906115e3565b60405180910390fd5b5f60035f8781526020019081526020015f209050806004015f9054906101000a900460ff16156104a5576040517f08c379a000000000000000000000000000000000000000000000000000000000815260040161049c9061164b565b60405180910390fd5b600160ff168560ff1614806104c05750600260ff168560ff16145b6104ff576040517f08c379a00000000000000000000000000000000000000000000000000000000081526004016104f6906116b3565b60405180910390fd5b84816001015f6101000a81548160ff021916908360ff1602179055508381600201819055508282826003019182610537929190611905565b506001816004015f6101000a81548160ff021916908315150217905550857faed005cf518d0d9eb04dde275eb0bf6f4db13897d3790188b20a380b86cce76e86866040516105869291906119d2565b60405180910390a25f600160ff168660ff16036106335760015f9054906101000a900473ffffffffffffffffffffffffffffffffffffffff1673ffffffffffffffffffffffffffffffffffffffff1663d75bbdf3888787876040518563ffffffff1660e01b81526004016105fd9493929190611a43565b5f604051808303815f87803b158015610614575f5ffd5b505af1158015610626573d5f5f3e3d5ffd5b50505050600190506106c4565b60015f9054906101000a900473ffffffffffffffffffffffffffffffffffffffff1673ffffffffffffffffffffffffffffffffffffffff166341dd26f5888787876040518563ffffffff1660e01b81526004016106939493929190611a43565b5f604051808303815f87803b1580156106aa575f5ffd5b505af11580156106bc573d5f5f3e3d5ffd5b505050505f90505b867f8b73054ea83940ab16e14db54b1ef060f1114af433ae56d5aebcd83b7d143791826040516106f49190611a81565b60405180910390a250505050505050565b60025f9054906101000a900473ffffffffffffffffffffffffffffffffffffffff1673ffffffffffffffffffffffffffffffffffffffff163373ffffffffffffffffffffffffffffffffffffffff1614806107ab57505f5f9054906101000a900473ffffffffffffffffffffffffffffffffffffffff1673ffffffffffffffffffffffffffffffffffffffff163373ffffffffffffffffffffffffffffffffffffffff16145b6107ea576040517f08c379a00000000000000000000000000000000000000000000000000000000081526004016107e1906115e3565b60405180910390fd5b5f60035f8481526020019081526020015f205f01541480610829575060035f8381526020019081526020015f206004015f9054906101000a900460ff16155b610868576040517f08c379a000000000000000000000000000000000000000000000000000000000815260040161085f90611ae4565b60405180910390fd5b6040518060a001604052808381526020015f60ff1681526020015f5f1b815260200160405180602001604052805f81525081526020015f151581525060035f8481526020019081526020015f205f820151815f01556020820151816001015f6101000a81548160ff021916908360ff1602179055506040820151816002015560608201518160030190816108fc9190611b02565b506080820151816004015f6101000a81548160ff0219169083151502179055509050508160045f8381526020019081526020015f208190555080827f61e065d06b9b96b6668905dab535a729e388b0504a90f70dbe5ec8e63ee77d8360405160405180910390a35050565b6003602052805f5260405f205f91509050805f015490806001015f9054906101000a900460ff16908060020154908060030180546109a490611735565b80601f01602080910402602001604051908101604052809291908181526020018280546109d090611735565b8015610a1b5780601f106109f257610100808354040283529160200191610a1b565b820191905f5260205f20905b8154815290600101906020018083116109fe57829003601f168201915b505050505090806004015f9054906101000a900460ff16905085565b60025f9054906101000a900473ffffffffffffffffffffffffffffffffffffffff1681565b600181565b6004602052805f5260405f205f915090505481565b60025f9054906101000a900473ffffffffffffffffffffffffffffffffffffffff1673ffffffffffffffffffffffffffffffffffffffff163373ffffffffffffffffffffffffffffffffffffffff161480610b1c57505f5f9054906101000a900473ffffffffffffffffffffffffffffffffffffffff1673ffffffffffffffffffffffffffffffffffffffff163373ffffffffffffffffffffffffffffffffffffffff16145b610b5b576040517f08c379a0000000000000000000000000000000000000000000000000000000008152600401610b52906115e3565b60405180910390fd5b5f5f5f5f8585810190610b6e9190611cbe565b93509350935093505f60035f8681526020019081526020015f209050806004015f9054906101000a900460ff1615610bdb576040517f08c379a0000000000000000000000000000000000000000000000000000000008152600401610bd29061164b565b60405180910390fd5b600160ff168460ff161480610bf65750600260ff168460ff16145b610c35576040517f08c379a0000000000000000000000000000000000000000000000000000000008152600401610c2c906116b3565b60405180910390fd5b83816001015f6101000a81548160ff021916908360ff16021790555082816002018190555081816003019081610c6b9190611b02565b506001816004015f6101000a81548160ff021916908315150217905550847faed005cf518d0d9eb04dde275eb0bf6f4db13897d3790188b20a380b86cce76e8585604051610cba9291906119d2565b60405180910390a25f600160ff168560ff1603610d655760015f9054906101000a900473ffffffffffffffffffffffffffffffffffffffff1673ffffffffffffffffffffffffffffffffffffffff1663d75bbdf38786866040518463ffffffff1660e01b8152600401610d2f93929190611d80565b5f604051808303815f87803b158015610d46575f5ffd5b505af1158015610d58573d5f5f3e3d5ffd5b5050505060019050610df4565b60015f9054906101000a900473ffffffffffffffffffffffffffffffffffffffff1673ffffffffffffffffffffffffffffffffffffffff166341dd26f58786866040518463ffffffff1660e01b8152600401610dc393929190611d80565b5f604051808303815f87803b158015610dda575f5ffd5b505af1158015610dec573d5f5f3e3d5ffd5b505050505f90505b857f8b73054ea83940ab16e14db54b1ef060f1114af433ae56d5aebcd83b7d14379182604051610e249190611a81565b60405180910390a25050505050505050565b5f5f9054906101000a900473ffffffffffffffffffffffffffffffffffffffff1681565b5f5f9054906101000a900473ffffffffffffffffffffffffffffffffffffffff1673ffffffffffffffffffffffffffffffffffffffff163373ffffffffffffffffffffffffffffffffffffffff1614610ee8576040517f08c379a0000000000000000000000000000000000000000000000000000000008152600401610edf9061157b565b60405180910390fd5b8060025f6101000a81548173ffffffffffffffffffffffffffffffffffffffff021916908373ffffffffffffffffffffffffffffffffffffffff16021790555050565b60015f9054906101000a900473ffffffffffffffffffffffffffffffffffffffff1681565b5f5f60605f5f60035f8781526020019081526020015f209050806001015f9054906101000a900460ff16816002015482600301836004015f9054906101000a900460ff16818054610fa090611735565b80601f0160208091040260200160405190810160405280929190818152602001828054610fcc90611735565b80156110175780601f10610fee57610100808354040283529160200191611017565b820191905f5260205f20905b815481529060010190602001808311610ffa57829003601f168201915b505050505091509450945094509450509193509193565b600281565b5f604051905090565b5f5ffd5b5f5ffd5b5f73ffffffffffffffffffffffffffffffffffffffff82169050919050565b5f61106d82611044565b9050919050565b61107d81611063565b8114611087575f5ffd5b50565b5f8135905061109881611074565b92915050565b5f602082840312156110b3576110b261103c565b5b5f6110c08482850161108a565b91505092915050565b5f819050919050565b6110db816110c9565b81146110e5575f5ffd5b50565b5f813590506110f6816110d2565b92915050565b5f60ff82169050919050565b611111816110fc565b811461111b575f5ffd5b50565b5f8135905061112c81611108565b92915050565b5f819050919050565b61114481611132565b811461114e575f5ffd5b50565b5f8135905061115f8161113b565b92915050565b5f5ffd5b5f5ffd5b5f5ffd5b5f5f83601f84011261118657611185611165565b5b8235905067ffffffffffffffff8111156111a3576111a2611169565b5b6020830191508360018202830111156111bf576111be61116d565b5b9250929050565b5f5f5f5f5f608086880312156111df576111de61103c565b5b5f6111ec888289016110e8565b95505060206111fd8882890161111e565b945050604061120e88828901611151565b935050606086013567ffffffffffffffff81111561122f5761122e611040565b5b61123b88828901611171565b92509250509295509295909350565b5f5f604083850312156112605761125f61103c565b5b5f61126d858286016110e8565b925050602061127e85828601611151565b9150509250929050565b5f6020828403121561129d5761129c61103c565b5b5f6112aa848285016110e8565b91505092915050565b6112bc816110c9565b82525050565b6112cb816110fc565b82525050565b6112da81611132565b82525050565b5f81519050919050565b5f82825260208201905092915050565b8281835e5f83830152505050565b5f601f19601f8301169050919050565b5f611322826112e0565b61132c81856112ea565b935061133c8185602086016112fa565b61134581611308565b840191505092915050565b5f8115159050919050565b61136481611350565b82525050565b5f60a08201905061137d5f8301886112b3565b61138a60208301876112c2565b61139760408301866112d1565b81810360608301526113a98185611318565b90506113b8608083018461135b565b9695505050505050565b6113cb81611063565b82525050565b5f6020820190506113e45f8301846113c2565b92915050565b5f6020820190506113fd5f8301846112c2565b92915050565b5f602082840312156114185761141761103c565b5b5f61142584828501611151565b91505092915050565b5f6020820190506114415f8301846112b3565b92915050565b5f5f83601f84011261145c5761145b611165565b5b8235905067ffffffffffffffff81111561147957611478611169565b5b6020830191508360018202830111156114955761149461116d565b5b9250929050565b5f5f602083850312156114b2576114b161103c565b5b5f83013567ffffffffffffffff8111156114cf576114ce611040565b5b6114db85828601611447565b92509250509250929050565b5f6080820190506114fa5f8301876112c2565b61150760208301866112d1565b81810360408301526115198185611318565b9050611528606083018461135b565b95945050505050565b7f4e6f74206f776e657200000000000000000000000000000000000000000000005f82015250565b5f6115656009836112ea565b915061157082611531565b602082019050919050565b5f6020820190508181035f83015261159281611559565b9050919050565b7f4e6f7420617574686f72697a65642072656c61790000000000000000000000005f82015250565b5f6115cd6014836112ea565b91506115d882611599565b602082019050919050565b5f6020820190508181035f8301526115fa816115c1565b9050919050565b7f416c72656164792064656c6976657265640000000000000000000000000000005f82015250565b5f6116356011836112ea565b915061164082611601565b602082019050919050565b5f6020820190508181035f83015261166281611629565b9050919050565b7f496e76616c6964207665726469637400000000000000000000000000000000005f82015250565b5f61169d600f836112ea565b91506116a882611669565b602082019050919050565b5f6020820190508181035f8301526116ca81611691565b9050919050565b5f82905092915050565b7f4e487b71000000000000000000000000000000000000000000000000000000005f52604160045260245ffd5b7f4e487b71000000000000000000000000000000000000000000000000000000005f52602260045260245ffd5b5f600282049050600182168061174c57607f821691505b60208210810361175f5761175e611708565b5b50919050565b5f819050815f5260205f209050919050565b5f6020601f8301049050919050565b5f82821b905092915050565b5f600883026117c17fffffffffffffffffffffffffffffffffffffffffffffffffffffffffffffffff82611786565b6117cb8683611786565b95508019841693508086168417925050509392505050565b5f819050919050565b5f6118066118016117fc846110c9565b6117e3565b6110c9565b9050919050565b5f819050919050565b61181f836117ec565b61183361182b8261180d565b848454611792565b825550505050565b5f5f905090565b61184a61183b565b611855818484611816565b505050565b5b818110156118785761186d5f82611842565b60018101905061185b565b5050565b601f8211156118bd5761188e81611765565b61189784611777565b810160208510156118a6578190505b6118ba6118b285611777565b83018261185a565b50505b505050565b5f82821c905092915050565b5f6118dd5f19846008026118c2565b1980831691505092915050565b5f6118f583836118ce565b9150826002028217905092915050565b61190f83836116d1565b67ffffffffffffffff811115611928576119276116db565b5b6119328254611735565b61193d82828561187c565b5f601f83116001811461196a575f8415611958578287013590505b61196285826118ea565b8655506119c9565b601f19841661197886611765565b5f5b8281101561199f5784890135825560018201915060208501945060208101905061197a565b868310156119bc57848901356119b8601f8916826118ce565b8355505b6001600288020188555050505b50505050505050565b5f6040820190506119e55f8301856112c2565b6119f260208301846112d1565b9392505050565b5f82825260208201905092915050565b828183375f83830152505050565b5f611a2283856119f9565b9350611a2f838584611a09565b611a3883611308565b840190509392505050565b5f606082019050611a565f8301876112b3565b611a6360208301866112d1565b8181036040830152611a76818486611a17565b905095945050505050565b5f602082019050611a945f83018461135b565b92915050565b7f416c7265616479206576616c75617465640000000000000000000000000000005f82015250565b5f611ace6011836112ea565b9150611ad982611a9a565b602082019050919050565b5f6020820190508181035f830152611afb81611ac2565b9050919050565b611b0b826112e0565b67ffffffffffffffff811115611b2457611b236116db565b5b611b2e8254611735565b611b3982828561187c565b5f60209050601f831160018114611b6a575f8415611b58578287015190505b611b6285826118ea565b865550611bc9565b601f198416611b7886611765565b5f5b82811015611b9f57848901518255600182019150602085019450602081019050611b7a565b86831015611bbc5784890151611bb8601f8916826118ce565b8355505b6001600288020188555050505b505050505050565b5f5ffd5b611bde82611308565b810181811067ffffffffffffffff82111715611bfd57611bfc6116db565b5b80604052505050565b5f611c0f611033565b9050611c1b8282611bd5565b919050565b5f67ffffffffffffffff821115611c3a57611c396116db565b5b611c4382611308565b9050602081019050919050565b5f611c62611c5d84611c20565b611c06565b905082815260208101848484011115611c7e57611c7d611bd1565b5b611c89848285611a09565b509392505050565b5f82601f830112611ca557611ca4611165565b5b8135611cb5848260208601611c50565b91505092915050565b5f5f5f5f60808587031215611cd657611cd561103c565b5b5f611ce3878288016110e8565b9450506020611cf48782880161111e565b9350506040611d0587828801611151565b925050606085013567ffffffffffffffff811115611d2657611d25611040565b5b611d3287828801611c91565b91505092959194509250565b5f81519050919050565b5f611d5282611d3e565b611d5c81856119f9565b9350611d6c8185602086016112fa565b611d7581611308565b840191505092915050565b5f606082019050611d935f8301866112b3565b611da060208301856112d1565b8181036040830152611db28184611d48565b905094935050505056fea2646970667358221220339972176e415a021a375c6733e05dcf08a9bbe41cb9dbc0f61a43344a35be4c64736f6c634300081c0033","linkReferences":{}},"methodIdentifiers":{"VERDICT_ACCEPT()":"7825ee44","VERDICT_REJECT()":"e8130fde","agenticCommerce()":"c1d36920","courtRelay()":"4a4ee818","deliverVerdict(uint256,uint8,bytes32,string)":"1159aa1d","deliverableToJob(bytes32)":"78bdf237","evaluations(uint256)":"33c63b17","getEvaluation(uint256)":"c23d4c85","owner()":"8da5cb5b","registerEvaluation(uint256,bytes32)":"20f9ad6d","resolveFromCourt(bytes)":"86313ab8","setAgenticCommerce(address)":"07e09ad6","setCourtRelay(address)":"8f1e54f7"},"id":10}