{"abi":[{"type":"constructor","inputs":[{"name":"_evaluator","type":"address","internalType":"address"},{"name":"_token","type":"address","internalType":"address"},{"name":"_title","type":"string","internalType":"string"},{"name":"_description","type":"string","internalType":"string"},{"name":"_criteriaUrl","type":"string","internalType":"string"},{"name":"_deadline","type":"uint256","internalType":"uint256"}],"stateMutability":"nonpayable"},{"type":"receive","stateMutability":"payable"},{"type":"function","name":"VERDICT_ACCEPT","inputs":[],"outputs":[{"name":"","type":"uint8","internalType":"uint8"}],"stateMutability":"view"},{"type":"function","name":"VERDICT_REJECT","inputs":[],"outputs":[{"name":"","type":"uint8","internalType":"uint8"}],"stateMutability":"view"},{"type":"function","name":"VERDICT_UNDETERMINED","inputs":[],"outputs":[{"name":"","type":"uint8","internalType":"uint8"}],"stateMutability":"view"},{"type":"function","name":"cancel","inputs":[],"outputs":[],"stateMutability":"nonpayable"},{"type":"function","name":"criteriaUrl","inputs":[],"outputs":[{"name":"","type":"string","internalType":"string"}],"stateMutability":"view"},{"type":"function","name":"currentStatus","inputs":[],"outputs":[{"name":"","type":"uint8","internalType":"enum BountyEscrow8183.BountyStatus"}],"stateMutability":"view"},{"type":"function","name":"deadline","inputs":[],"outputs":[{"name":"","type":"uint256","internalType":"uint256"}],"stateMutability":"view"},{"type":"function","name":"deposit","inputs":[{"name":"_token","type":"address","internalType":"address"},{"name":"_amount","type":"uint256","internalType":"uint256"}],"outputs":[],"stateMutability":"payable"},{"type":"function","name":"depositor","inputs":[],"outputs":[{"name":"","type":"address","internalType":"address"}],"stateMutability":"view"},{"type":"function","name":"description","inputs":[],"outputs":[{"name":"","type":"string","internalType":"string"}],"stateMutability":"view"},{"type":"function","name":"escrowBalance","inputs":[],"outputs":[{"name":"","type":"uint256","internalType":"uint256"}],"stateMutability":"view"},{"type":"function","name":"escrowToken","inputs":[],"outputs":[{"name":"","type":"address","internalType":"address"}],"stateMutability":"view"},{"type":"function","name":"evaluator","inputs":[],"outputs":[{"name":"","type":"address","internalType":"address"}],"stateMutability":"view"},{"type":"function","name":"expire","inputs":[],"outputs":[],"stateMutability":"nonpayable"},{"type":"function","name":"getSubmission","inputs":[{"name":"_id","type":"bytes32","internalType":"bytes32"}],"outputs":[{"name":"submitter","type":"address","internalType":"address"},{"name":"proposalUrl","type":"string","internalType":"string"},{"name":"submittedAt","type":"uint256","internalType":"uint256"},{"name":"verdict","type":"uint8","internalType":"uint8"},{"name":"verdictReason","type":"string","internalType":"string"},{"name":"resolved","type":"bool","internalType":"bool"}],"stateMutability":"view"},{"type":"function","name":"getSubmissionIds","inputs":[],"outputs":[{"name":"","type":"bytes32[]","internalType":"bytes32[]"}],"stateMutability":"view"},{"type":"function","name":"prizeAmount","inputs":[],"outputs":[{"name":"","type":"uint256","internalType":"uint256"}],"stateMutability":"view"},{"type":"function","name":"resolve","inputs":[{"name":"submissionId","type":"bytes32","internalType":"bytes32"},{"name":"verdict","type":"uint8","internalType":"uint8"},{"name":"resolutionData","type":"bytes","internalType":"bytes"}],"outputs":[],"stateMutability":"nonpayable"},{"type":"function","name":"resolveFromCourt","inputs":[{"name":"_submissionId","type":"bytes32","internalType":"bytes32"},{"name":"_verdict","type":"uint8","internalType":"uint8"},{"name":"_reason","type":"string","internalType":"string"}],"outputs":[],"stateMutability":"nonpayable"},{"type":"function","name":"setEvaluator","inputs":[{"name":"_newEvaluator","type":"address","internalType":"address"}],"outputs":[],"stateMutability":"nonpayable"},{"type":"function","name":"status","inputs":[],"outputs":[{"name":"","type":"uint8","internalType":"uint8"}],"stateMutability":"view"},{"type":"function","name":"submissionCount","inputs":[],"outputs":[{"name":"","type":"uint256","internalType":"uint256"}],"stateMutability":"view"},{"type":"function","name":"submissionIds","inputs":[{"name":"","type":"uint256","internalType":"uint256"}],"outputs":[{"name":"","type":"bytes32","internalType":"bytes32"}],"stateMutability":"view"},{"type":"function","name":"submissions","inputs":[{"name":"","type":"bytes32","internalType":"bytes32"}],"outputs":[{"name":"submitter","type":"address","internalType":"address"},{"name":"proposalUrl","type":"string","internalType":"string"},{"name":"submittedAt","type":"uint256","internalType":"uint256"},{"name":"verdict","type":"uint8","internalType":"uint8"},{"name":"verdictReason","type":"string","internalType":"string"},{"name":"resolved","type":"bool","internalType":"bool"}],"stateMutability":"view"},{"type":"function","name":"submit","inputs":[{"name":"data","type":"bytes","internalType":"bytes"}],"outputs":[{"name":"submissionId","type":"bytes32","internalType":"bytes32"}],"stateMutability":"nonpayable"},{"type":"function","name":"title","inputs":[],"outputs":[{"name":"","type":"string","internalType":"string"}],"stateMutability":"view"},{"type":"function","name":"winner","inputs":[],"outputs":[{"name":"","type":"address","internalType":"address"}],"stateMutability":"view"},{"type":"function","name":"winningSubmission","inputs":[],"outputs":[{"name":"","type":"bytes32","internalType":"bytes32"}],"stateMutability":"view"},{"type":"event","name":"BountyAwarded","inputs":[{"name":"submissionId","type":"bytes32","indexed":true,"internalType":"bytes32"},{"name":"winner","type":"address","indexed":true,"internalType":"address"},{"name":"amount","type":"uint256","indexed":false,"internalType":"uint256"}],"anonymous":false},{"type":"event","name":"BountyCancelled","inputs":[{"name":"refundAmount","type":"uint256","indexed":false,"internalType":"uint256"}],"anonymous":false},{"type":"event","name":"BountyCreated","inputs":[{"name":"title","type":"string","indexed":false,"internalType":"string"},{"name":"prize","type":"uint256","indexed":false,"internalType":"uint256"},{"name":"deadline","type":"uint256","indexed":false,"internalType":"uint256"}],"anonymous":false},{"type":"event","name":"BountyExpired","inputs":[],"anonymous":false},{"type":"event","name":"Deposited","inputs":[{"name":"depositor","type":"address","indexed":true,"internalType":"address"},{"name":"token","type":"address","indexed":true,"internalType":"address"},{"name":"amount","type":"uint256","indexed":false,"internalType":"uint256"}],"anonymous":false},{"type":"event","name":"EvaluationRequested","inputs":[{"name":"submissionId","type":"bytes32","indexed":true,"internalType":"bytes32"},{"name":"submitter","type":"address","indexed":true,"internalType":"address"},{"name":"data","type":"bytes","indexed":false,"internalType":"bytes"}],"anonymous":false},{"type":"event","name":"Resolved","inputs":[{"name":"submissionId","type":"bytes32","indexed":true,"internalType":"bytes32"},{"name":"verdict","type":"uint8","indexed":false,"internalType":"uint8"},{"name":"resolutionData","type":"bytes","indexed":false,"internalType":"bytes"}],"anonymous":false},{"type":"event","name":"SubmissionReceived","inputs":[{"name":"submissionId","type":"bytes32","indexed":true,"internalType":"bytes32"},{"name":"submitter","type":"address","indexed":true,"internalType":"address"},{"name":"proposalUrl","type":"string","indexed":false,"internalType":"string"}],"anonymous":false},{"type":"error","name":"SafeERC20FailedOperation","inputs":[{"name":"token","type":"address","internalType":"address"}]}],"bytecode":{"object":"0x608060405234801561000f575f5ffd5b5060405161450638038061450683398181016040528101906100319190610420565b5f73ffffffffffffffffffffffffffffffffffffffff168673ffffffffffffffffffffffffffffffffffffffff160361009f576040517f08c379a000000000000000000000000000000000000000000000000000000000815260040161009690610557565b60405180910390fd5b4281116100e1576040517f08c379a00000000000000000000000000000000000000000000000000000000081526004016100d8906105bf565b60405180910390fd5b335f5f6101000a81548173ffffffffffffffffffffffffffffffffffffffff021916908373ffffffffffffffffffffffffffffffffffffffff1602179055508560015f6101000a81548173ffffffffffffffffffffffffffffffffffffffff021916908373ffffffffffffffffffffffffffffffffffffffff1602179055508460025f6101000a81548173ffffffffffffffffffffffffffffffffffffffff021916908373ffffffffffffffffffffffffffffffffffffffff16021790555083600590816101af91906107e4565b5082600690816101bf91906107e4565b5081600790816101cf91906107e4565b50806008819055505f60045f6101000a81548160ff021916908360048111156101fb576101fa6108b3565b5b02179055507fd03c9595063e238ef5abf908f74cfe2963bc5c60cde40d8f99f13d8bc6cd9be2845f8360405161023393929190610960565b60405180910390a150505050505061099c565b5f604051905090565b5f5ffd5b5f5ffd5b5f73ffffffffffffffffffffffffffffffffffffffff82169050919050565b5f61028082610257565b9050919050565b61029081610276565b811461029a575f5ffd5b50565b5f815190506102ab81610287565b92915050565b5f5ffd5b5f5ffd5b5f601f19601f8301169050919050565b7f4e487b71000000000000000000000000000000000000000000000000000000005f52604160045260245ffd5b6102ff826102b9565b810181811067ffffffffffffffff8211171561031e5761031d6102c9565b5b80604052505050565b5f610330610246565b905061033c82826102f6565b919050565b5f67ffffffffffffffff82111561035b5761035a6102c9565b5b610364826102b9565b9050602081019050919050565b8281835e5f83830152505050565b5f61039161038c84610341565b610327565b9050828152602081018484840111156103ad576103ac6102b5565b5b6103b8848285610371565b509392505050565b5f82601f8301126103d4576103d36102b1565b5b81516103e484826020860161037f565b91505092915050565b5f819050919050565b6103ff816103ed565b8114610409575f5ffd5b50565b5f8151905061041a816103f6565b92915050565b5f5f5f5f5f5f60c0878903121561043a5761043961024f565b5b5f61044789828a0161029d565b965050602061045889828a0161029d565b955050604087015167ffffffffffffffff81111561047957610478610253565b5b61048589828a016103c0565b945050606087015167ffffffffffffffff8111156104a6576104a5610253565b5b6104b289828a016103c0565b935050608087015167ffffffffffffffff8111156104d3576104d2610253565b5b6104df89828a016103c0565b92505060a06104f089828a0161040c565b9150509295509295509295565b5f82825260208201905092915050565b7f496e76616c6964206576616c7561746f720000000000000000000000000000005f82015250565b5f6105416011836104fd565b915061054c8261050d565b602082019050919050565b5f6020820190508181035f83015261056e81610535565b9050919050565b7f446561646c696e65206d757374206265206675747572650000000000000000005f82015250565b5f6105a96017836104fd565b91506105b482610575565b602082019050919050565b5f6020820190508181035f8301526105d68161059d565b9050919050565b5f81519050919050565b7f4e487b71000000000000000000000000000000000000000000000000000000005f52602260045260245ffd5b5f600282049050600182168061062b57607f821691505b60208210810361063e5761063d6105e7565b5b50919050565b5f819050815f5260205f209050919050565b5f6020601f8301049050919050565b5f82821b905092915050565b5f600883026106a07fffffffffffffffffffffffffffffffffffffffffffffffffffffffffffffffff82610665565b6106aa8683610665565b95508019841693508086168417925050509392505050565b5f819050919050565b5f6106e56106e06106db846103ed565b6106c2565b6103ed565b9050919050565b5f819050919050565b6106fe836106cb565b61071261070a826106ec565b848454610671565b825550505050565b5f5f905090565b61072961071a565b6107348184846106f5565b505050565b5b818110156107575761074c5f82610721565b60018101905061073a565b5050565b601f82111561079c5761076d81610644565b61077684610656565b81016020851015610785578190505b61079961079185610656565b830182610739565b50505b505050565b5f82821c905092915050565b5f6107bc5f19846008026107a1565b1980831691505092915050565b5f6107d483836107ad565b9150826002028217905092915050565b6107ed826105dd565b67ffffffffffffffff811115610806576108056102c9565b5b6108108254610614565b61081b82828561075b565b5f60209050601f83116001811461084c575f841561083a578287015190505b61084485826107c9565b8655506108ab565b601f19841661085a86610644565b5f5b828110156108815784890151825560018201915060208501945060208101905061085c565b8683101561089e578489015161089a601f8916826107ad565b8355505b6001600288020188555050505b505050505050565b7f4e487b71000000000000000000000000000000000000000000000000000000005f52602160045260245ffd5b5f6108ea826105dd565b6108f481856104fd565b9350610904818560208601610371565b61090d816102b9565b840191505092915050565b5f819050919050565b5f61093b61093661093184610918565b6106c2565b6103ed565b9050919050565b61094b81610921565b82525050565b61095a816103ed565b82525050565b5f6060820190508181035f83015261097881866108e0565b90506109876020830185610942565b6109946040830184610951565b949350505050565b613b5d806109a95f395ff3fe6080604052600436106101ba575f3560e01c806379599f96116100eb578063dfbf53ae11610089578063ea8a1af011610063578063ea8a1af014610650578063ef7fa71b14610666578063ef8a9235146106a2578063fe2932dd146106cc57610256565b8063dfbf53ae146105d2578063e11e1b0c146105fc578063e8130fde1461062657610256565b8063c5c9c0a2116100c5578063c5c9c0a214610515578063c764576814610556578063c7c4ff461461057e578063d200e454146105a857610256565b806379599f96146104ad5780639bee40fe146104c35780639cb93dd1146104eb57610256565b806347e7ef24116101585780637284e416116101325780637284e416146103ee578063756dd3a4146104185780637825ee4414610459578063785fa6271461048357610256565b806347e7ef241461037e5780634a79d50c1461039a5780636ec02be9146103c457610256565b8063255aca2e11610194578063255aca2e146102d657806329dcb0cf146103005780632fe319da1461032a578063417e5bc21461035457610256565b806302dbbbac1461025a578063200d2ed21461028257806320135be6146102ac57610256565b36610256573460035f8282546101d091906124a4565b925050819055503460095f8282546101e891906124a4565b925050819055505f73ffffffffffffffffffffffffffffffffffffffff163373ffffffffffffffffffffffffffffffffffffffff167f8752a472e571a816aea92eec8dae9baf628e840f4929fbcc2d155e6233ff68a73460405161024c91906124e6565b60405180910390a3005b5f5ffd5b348015610265575f5ffd5b50610280600480360381019061027b919061256a565b610708565b005b34801561028d575f5ffd5b50610296610847565b6040516102a391906125b0565b60405180910390f35b3480156102b7575f5ffd5b506102c061086e565b6040516102cd9190612689565b60405180910390f35b3480156102e1575f5ffd5b506102ea6108c4565b6040516102f79190612719565b60405180910390f35b34801561030b575f5ffd5b50610314610950565b60405161032191906124e6565b60405180910390f35b348015610335575f5ffd5b5061033e610956565b60405161034b9190612748565b60405180910390f35b34801561035f575f5ffd5b5061036861097b565b6040516103759190612770565b60405180910390f35b610398600480360381019061039391906127b3565b610981565b005b3480156103a5575f5ffd5b506103ae610d67565b6040516103bb9190612719565b60405180910390f35b3480156103cf575f5ffd5b506103d8610df3565b6040516103e591906124e6565b60405180910390f35b3480156103f9575f5ffd5b50610402610dff565b60405161040f9190612719565b60405180910390f35b348015610423575f5ffd5b5061043e6004803603810190610439919061281b565b610e8b565b60405161045096959493929190612860565b60405180910390f35b348015610464575f5ffd5b5061046d611023565b60405161047a91906125b0565b60405180910390f35b34801561048e575f5ffd5b50610497611028565b6040516104a491906124e6565b60405180910390f35b3480156104b8575f5ffd5b506104c161102e565b005b3480156104ce575f5ffd5b506104e960048036038101906104e49190612958565b611184565b005b3480156104f6575f5ffd5b506104ff611530565b60405161050c9190612748565b60405180910390f35b348015610520575f5ffd5b5061053b6004803603810190610536919061281b565b611555565b60405161054d96959493929190612860565b60405180910390f35b348015610561575f5ffd5b5061057c60048036038101906105779190612a1e565b6116d0565b005b348015610589575f5ffd5b50610592611a6d565b60405161059f9190612748565b60405180910390f35b3480156105b3575f5ffd5b506105bc611a91565b6040516105c991906125b0565b60405180910390f35b3480156105dd575f5ffd5b506105e6611a95565b6040516105f39190612748565b60405180910390f35b348015610607575f5ffd5b50610610611aba565b60405161061d91906124e6565b60405180910390f35b348015610631575f5ffd5b5061063a611ac0565b60405161064791906125b0565b60405180910390f35b34801561065b575f5ffd5b50610664611ac5565b005b348015610671575f5ffd5b5061068c60048036038101906106879190612a8f565b611c33565b6040516106999190612770565b60405180910390f35b3480156106ad575f5ffd5b506106b6611fb4565b6040516106c39190612b4d565b60405180910390f35b3480156106d7575f5ffd5b506106f260048036038101906106ed9190612b66565b611fc6565b6040516106ff9190612770565b60405180910390f35b5f5f9054906101000a900473ffffffffffffffffffffffffffffffffffffffff1673ffffffffffffffffffffffffffffffffffffffff163373ffffffffffffffffffffffffffffffffffffffff1614610796576040517f08c379a000000000000000000000000000000000000000000000000000000000815260040161078d90612bdb565b60405180910390fd5b5f73ffffffffffffffffffffffffffffffffffffffff168173ffffffffffffffffffffffffffffffffffffffff1603610804576040517f08c379a00000000000000000000000000000000000000000000000000000000081526004016107fb90612c43565b60405180910390fd5b8060015f6101000a81548173ffffffffffffffffffffffffffffffffffffffff021916908373ffffffffffffffffffffffffffffffffffffffff16021790555050565b5f60045f9054906101000a900460ff16600481111561086957610868612ada565b5b905090565b6060600b8054806020026020016040519081016040528092919081815260200182805480156108ba57602002820191905f5260205f20905b8154815260200190600101908083116108a6575b5050505050905090565b600780546108d190612c8e565b80601f01602080910402602001604051908101604052809291908181526020018280546108fd90612c8e565b80156109485780601f1061091f57610100808354040283529160200191610948565b820191905f5260205f20905b81548152906001019060200180831161092b57829003601f168201915b505050505081565b60085481565b60025f9054906101000a900473ffffffffffffffffffffffffffffffffffffffff1681565b600c5481565b5f5f9054906101000a900473ffffffffffffffffffffffffffffffffffffffff1673ffffffffffffffffffffffffffffffffffffffff163373ffffffffffffffffffffffffffffffffffffffff1614610a0f576040517f08c379a0000000000000000000000000000000000000000000000000000000008152600401610a0690612d08565b60405180910390fd5b5f6004811115610a2257610a21612ada565b5b60045f9054906101000a900460ff166004811115610a4357610a42612ada565b5b1480610a81575060016004811115610a5e57610a5d612ada565b5b60045f9054906101000a900460ff166004811115610a7f57610a7e612ada565b5b145b610ac0576040517f08c379a0000000000000000000000000000000000000000000000000000000008152600401610ab790612d70565b60405180910390fd5b5f73ffffffffffffffffffffffffffffffffffffffff168273ffffffffffffffffffffffffffffffffffffffff1603610bcf575f3411610b35576040517f08c379a0000000000000000000000000000000000000000000000000000000008152600401610b2c90612dd8565b60405180910390fd5b3460035f828254610b4691906124a4565b925050819055503460095f828254610b5e91906124a4565b925050819055505f73ffffffffffffffffffffffffffffffffffffffff163373ffffffffffffffffffffffffffffffffffffffff167f8752a472e571a816aea92eec8dae9baf628e840f4929fbcc2d155e6233ff68a734604051610bc291906124e6565b60405180910390a3610d63565b60025f9054906101000a900473ffffffffffffffffffffffffffffffffffffffff1673ffffffffffffffffffffffffffffffffffffffff168273ffffffffffffffffffffffffffffffffffffffff1614610c5e576040517f08c379a0000000000000000000000000000000000000000000000000000000008152600401610c5590612e40565b60405180910390fd5b5f8111610ca0576040517f08c379a0000000000000000000000000000000000000000000000000000000008152600401610c9790612ea8565b60405180910390fd5b610ccd3330838573ffffffffffffffffffffffffffffffffffffffff16611fe6909392919063ffffffff16565b8060035f828254610cde91906124a4565b925050819055508060095f828254610cf691906124a4565b925050819055508173ffffffffffffffffffffffffffffffffffffffff163373ffffffffffffffffffffffffffffffffffffffff167f8752a472e571a816aea92eec8dae9baf628e840f4929fbcc2d155e6233ff68a783604051610d5a91906124e6565b60405180910390a35b5050565b60058054610d7490612c8e565b80601f0160208091040260200160405190810160405280929190818152602001828054610da090612c8e565b8015610deb5780601f10610dc257610100808354040283529160200191610deb565b820191905f5260205f20905b815481529060010190602001808311610dce57829003601f168201915b505050505081565b5f600b80549050905090565b60068054610e0c90612c8e565b80601f0160208091040260200160405190810160405280929190818152602001828054610e3890612c8e565b8015610e835780601f10610e5a57610100808354040283529160200191610e83565b820191905f5260205f20905b815481529060010190602001808311610e6657829003601f168201915b505050505081565b5f60605f5f60605f5f600a5f8981526020019081526020015f209050805f015f9054906101000a900473ffffffffffffffffffffffffffffffffffffffff16816001018260020154836003015f9054906101000a900460ff1684600401856005015f9054906101000a900460ff16848054610f0590612c8e565b80601f0160208091040260200160405190810160405280929190818152602001828054610f3190612c8e565b8015610f7c5780601f10610f5357610100808354040283529160200191610f7c565b820191905f5260205f20905b815481529060010190602001808311610f5f57829003601f168201915b50505050509450818054610f8f90612c8e565b80601f0160208091040260200160405190810160405280929190818152602001828054610fbb90612c8e565b80156110065780601f10610fdd57610100808354040283529160200191611006565b820191905f5260205f20905b815481529060010190602001808311610fe957829003601f168201915b505050505091509650965096509650965096505091939550919395565b600181565b60095481565b600854421015611073576040517f08c379a000000000000000000000000000000000000000000000000000000000815260040161106a90612f10565b60405180910390fd5b5f600481111561108657611085612ada565b5b60045f9054906101000a900460ff1660048111156110a7576110a6612ada565b5b14806110e55750600160048111156110c2576110c1612ada565b5b60045f9054906101000a900460ff1660048111156110e3576110e2612ada565b5b145b611124576040517f08c379a000000000000000000000000000000000000000000000000000000000815260040161111b90612f78565b60405180910390fd5b600360045f6101000a81548160ff0219169083600481111561114957611148612ada565b5b021790555061115661203b565b7fdb2dfcf41b1d89f40e003b82474e43c9c695bf7ca4a13068fb1fa464fcf89ea560405160405180910390a1565b60015f9054906101000a900473ffffffffffffffffffffffffffffffffffffffff1673ffffffffffffffffffffffffffffffffffffffff163373ffffffffffffffffffffffffffffffffffffffff1614611213576040517f08c379a000000000000000000000000000000000000000000000000000000000815260040161120a90612fe0565b60405180910390fd5b5f600a5f8681526020019081526020015f2090505f81600201541161126d576040517f08c379a000000000000000000000000000000000000000000000000000000000815260040161126490613048565b60405180910390fd5b806005015f9054906101000a900460ff16156112be576040517f08c379a00000000000000000000000000000000000000000000000000000000081526004016112b5906130b0565b60405180910390fd5b600260048111156112d2576112d1612ada565b5b60045f9054906101000a900460ff1660048111156112f3576112f2612ada565b5b03611333576040517f08c379a000000000000000000000000000000000000000000000000000000000815260040161132a90613118565b60405180910390fd5b5f60405180602001604052805f81525090505f84849050111561136257838381019061135f919061325e565b90505b84826003015f6101000a81548160ff021916908360ff1602179055508082600401908161138f9190613445565b506001826005015f6101000a81548160ff021916908315150217905550600160ff168560ff16036114ec57815f015f9054906101000a900473ffffffffffffffffffffffffffffffffffffffff16600d5f6101000a81548173ffffffffffffffffffffffffffffffffffffffff021916908373ffffffffffffffffffffffffffffffffffffffff16021790555085600c81905550600260045f6101000a81548160ff0219169083600481111561144857611447612ada565b5b0217905550611478825f015f9054906101000a900473ffffffffffffffffffffffffffffffffffffffff166121e8565b815f015f9054906101000a900473ffffffffffffffffffffffffffffffffffffffff1673ffffffffffffffffffffffffffffffffffffffff16867f68b5621fc9973dcfde8c5b11ad3a1b8cc41b8b8a85e251b1da3d425ec965568d6009546040516114e391906124e6565b60405180910390a35b857f8b698f0e39175deacecfd41b61e868581b74da2938aacc8da39dcb2c3d38bf9586868660405161152093929190613550565b60405180910390a2505050505050565b60015f9054906101000a900473ffffffffffffffffffffffffffffffffffffffff1681565b600a602052805f5260405f205f91509050805f015f9054906101000a900473ffffffffffffffffffffffffffffffffffffffff169080600101805461159990612c8e565b80601f01602080910402602001604051908101604052809291908181526020018280546115c590612c8e565b80156116105780601f106115e757610100808354040283529160200191611610565b820191905f5260205f20905b8154815290600101906020018083116115f357829003601f168201915b505050505090806002015490806003015f9054906101000a900460ff169080600401805461163d90612c8e565b80601f016020809104026020016040519081016040528092919081815260200182805461166990612c8e565b80156116b45780601f1061168b576101008083540402835291602001916116b4565b820191905f5260205f20905b81548152906001019060200180831161169757829003601f168201915b505050505090806005015f9054906101000a900460ff16905086565b60015f9054906101000a900473ffffffffffffffffffffffffffffffffffffffff1673ffffffffffffffffffffffffffffffffffffffff163373ffffffffffffffffffffffffffffffffffffffff161461175f576040517f08c379a000000000000000000000000000000000000000000000000000000000815260040161175690612fe0565b60405180910390fd5b5f600a5f8681526020019081526020015f2090505f8160020154116117b9576040517f08c379a00000000000000000000000000000000000000000000000000000000081526004016117b090613048565b60405180910390fd5b806005015f9054906101000a900460ff161561180a576040517f08c379a0000000000000000000000000000000000000000000000000000000008152600401611801906130b0565b60405180910390fd5b6002600481111561181e5761181d612ada565b5b60045f9054906101000a900460ff16600481111561183f5761183e612ada565b5b0361187f576040517f08c379a000000000000000000000000000000000000000000000000000000000815260040161187690613118565b60405180910390fd5b83816003015f6101000a81548160ff021916908360ff16021790555082828260040191826118ae92919061358a565b506001816005015f6101000a81548160ff021916908315150217905550600160ff168460ff1603611a0b57805f015f9054906101000a900473ffffffffffffffffffffffffffffffffffffffff16600d5f6101000a81548173ffffffffffffffffffffffffffffffffffffffff021916908373ffffffffffffffffffffffffffffffffffffffff16021790555084600c81905550600260045f6101000a81548160ff0219169083600481111561196757611966612ada565b5b0217905550611997815f015f9054906101000a900473ffffffffffffffffffffffffffffffffffffffff166121e8565b805f015f9054906101000a900473ffffffffffffffffffffffffffffffffffffffff1673ffffffffffffffffffffffffffffffffffffffff16857f68b5621fc9973dcfde8c5b11ad3a1b8cc41b8b8a85e251b1da3d425ec965568d600954604051611a0291906124e6565b60405180910390a35b847f8b698f0e39175deacecfd41b61e868581b74da2938aacc8da39dcb2c3d38bf95858585604051602001611a41929190613683565b604051602081830303815290604052604051611a5e9291906136e7565b60405180910390a25050505050565b5f5f9054906101000a900473ffffffffffffffffffffffffffffffffffffffff1681565b5f81565b600d5f9054906101000a900473ffffffffffffffffffffffffffffffffffffffff1681565b60035481565b600281565b5f5f9054906101000a900473ffffffffffffffffffffffffffffffffffffffff1673ffffffffffffffffffffffffffffffffffffffff163373ffffffffffffffffffffffffffffffffffffffff1614611b53576040517f08c379a0000000000000000000000000000000000000000000000000000000008152600401611b4a90612bdb565b60405180910390fd5b5f6004811115611b6657611b65612ada565b5b60045f9054906101000a900460ff166004811115611b8757611b86612ada565b5b14611bc7576040517f08c379a0000000000000000000000000000000000000000000000000000000008152600401611bbe9061375f565b60405180910390fd5b6004805f6101000a81548160ff02191690836004811115611beb57611bea612ada565b5b0217905550611bf861203b565b7f92717314c0b0f9d632e1d46a0b8437778ff9daee1db8ec295f2bc0b57c4bcaac600354604051611c2991906124e6565b60405180910390a1565b5f5f6004811115611c4757611c46612ada565b5b60045f9054906101000a900460ff166004811115611c6857611c67612ada565b5b14611ca8576040517f08c379a0000000000000000000000000000000000000000000000000000000008152600401611c9f906137c7565b60405180910390fd5b6008544210611cec576040517f08c379a0000000000000000000000000000000000000000000000000000000008152600401611ce39061382f565b60405180910390fd5b5f8383810190611cfc919061325e565b90505f815111611d41576040517f08c379a0000000000000000000000000000000000000000000000000000000008152600401611d3890613897565b60405180910390fd5b338142604051602001611d5693929190613954565b6040516020818303038152906040528051906020012091505f600a5f8481526020019081526020015f206002015414611dc4576040517f08c379a0000000000000000000000000000000000000000000000000000000008152600401611dbb906139d6565b60405180910390fd5b6040518060c001604052803373ffffffffffffffffffffffffffffffffffffffff1681526020018281526020014281526020015f60ff16815260200160405180602001604052805f81525081526020015f1515815250600a5f8481526020019081526020015f205f820151815f015f6101000a81548173ffffffffffffffffffffffffffffffffffffffff021916908373ffffffffffffffffffffffffffffffffffffffff1602179055506020820151816001019081611e849190613445565b50604082015181600201556060820151816003015f6101000a81548160ff021916908360ff1602179055506080820151816004019081611ec49190613445565b5060a0820151816005015f6101000a81548160ff021916908315150217905550905050600b82908060018154018082558091505060019003905f5260205f20015f90919091909150553373ffffffffffffffffffffffffffffffffffffffff16827f022b116330182b69a0363ecb1ba12dfe3c8e1d36b220fcfc83245730f83ca19d83604051611f549190612719565b60405180910390a33373ffffffffffffffffffffffffffffffffffffffff16827fa534d650d0b980695b8ada27de0104c7466fee748f9983ed230707233bd6aca38686604051611fa59291906139f4565b60405180910390a35092915050565b60045f9054906101000a900460ff1681565b600b8181548110611fd5575f80fd5b905f5260205f20015f915090505481565b611ff4848484846001612348565b61203557836040517f5274afe700000000000000000000000000000000000000000000000000000000815260040161202c9190612748565b60405180910390fd5b50505050565b5f60035490505f810361204e57506121e6565b5f6003819055505f73ffffffffffffffffffffffffffffffffffffffff1660025f9054906101000a900473ffffffffffffffffffffffffffffffffffffffff1673ffffffffffffffffffffffffffffffffffffffff1603612177575f5f5f9054906101000a900473ffffffffffffffffffffffffffffffffffffffff1673ffffffffffffffffffffffffffffffffffffffff16826040516120ee90613a43565b5f6040518083038185875af1925050503d805f8114612128576040519150601f19603f3d011682016040523d82523d5f602084013e61212d565b606091505b5050905080612171576040517f08c379a000000000000000000000000000000000000000000000000000000000815260040161216890613aa1565b60405180910390fd5b506121e4565b6121e35f5f9054906101000a900473ffffffffffffffffffffffffffffffffffffffff168260025f9054906101000a900473ffffffffffffffffffffffffffffffffffffffff1673ffffffffffffffffffffffffffffffffffffffff166123b99092919063ffffffff16565b5b505b565b5f60035490505f6003819055505f73ffffffffffffffffffffffffffffffffffffffff1660025f9054906101000a900473ffffffffffffffffffffffffffffffffffffffff1673ffffffffffffffffffffffffffffffffffffffff16036122f7575f8273ffffffffffffffffffffffffffffffffffffffff168260405161226e90613a43565b5f6040518083038185875af1925050503d805f81146122a8576040519150601f19603f3d011682016040523d82523d5f602084013e6122ad565b606091505b50509050806122f1576040517f08c379a00000000000000000000000000000000000000000000000000000000081526004016122e890613b09565b60405180910390fd5b50612344565b612343828260025f9054906101000a900473ffffffffffffffffffffffffffffffffffffffff1673ffffffffffffffffffffffffffffffffffffffff166123b99092919063ffffffff16565b5b5050565b5f5f6323b872dd60e01b9050604051815f525f1960601c87166004525f1960601c86166024528460445260205f60645f5f8c5af1925060015f511483166123a657838315161561239a573d5f823e3d81fd5b5f883b113d1516831692505b806040525f606052505095945050505050565b6123c6838383600161240c565b61240757826040517f5274afe70000000000000000000000000000000000000000000000000000000081526004016123fe9190612748565b60405180910390fd5b505050565b5f5f63a9059cbb60e01b9050604051815f525f1960601c86166004528460245260205f60445f5f8b5af1925060015f51148316612460578383151615612454573d5f823e3d81fd5b5f873b113d1516831692505b806040525050949350505050565b5f819050919050565b7f4e487b71000000000000000000000000000000000000000000000000000000005f52601160045260245ffd5b5f6124ae8261246e565b91506124b98361246e565b92508282019050808211156124d1576124d0612477565b5b92915050565b6124e08161246e565b82525050565b5f6020820190506124f95f8301846124d7565b92915050565b5f604051905090565b5f5ffd5b5f5ffd5b5f73ffffffffffffffffffffffffffffffffffffffff82169050919050565b5f61253982612510565b9050919050565b6125498161252f565b8114612553575f5ffd5b50565b5f8135905061256481612540565b92915050565b5f6020828403121561257f5761257e612508565b5b5f61258c84828501612556565b91505092915050565b5f60ff82169050919050565b6125aa81612595565b82525050565b5f6020820190506125c35f8301846125a1565b92915050565b5f81519050919050565b5f82825260208201905092915050565b5f819050602082019050919050565b5f819050919050565b612604816125f2565b82525050565b5f61261583836125fb565b60208301905092915050565b5f602082019050919050565b5f612637826125c9565b61264181856125d3565b935061264c836125e3565b805f5b8381101561267c578151612663888261260a565b975061266e83612621565b92505060018101905061264f565b5085935050505092915050565b5f6020820190508181035f8301526126a1818461262d565b905092915050565b5f81519050919050565b5f82825260208201905092915050565b8281835e5f83830152505050565b5f601f19601f8301169050919050565b5f6126eb826126a9565b6126f581856126b3565b93506127058185602086016126c3565b61270e816126d1565b840191505092915050565b5f6020820190508181035f83015261273181846126e1565b905092915050565b6127428161252f565b82525050565b5f60208201905061275b5f830184612739565b92915050565b61276a816125f2565b82525050565b5f6020820190506127835f830184612761565b92915050565b6127928161246e565b811461279c575f5ffd5b50565b5f813590506127ad81612789565b92915050565b5f5f604083850312156127c9576127c8612508565b5b5f6127d685828601612556565b92505060206127e78582860161279f565b9150509250929050565b6127fa816125f2565b8114612804575f5ffd5b50565b5f81359050612815816127f1565b92915050565b5f602082840312156128305761282f612508565b5b5f61283d84828501612807565b91505092915050565b5f8115159050919050565b61285a81612846565b82525050565b5f60c0820190506128735f830189612739565b818103602083015261288581886126e1565b905061289460408301876124d7565b6128a160608301866125a1565b81810360808301526128b381856126e1565b90506128c260a0830184612851565b979650505050505050565b6128d681612595565b81146128e0575f5ffd5b50565b5f813590506128f1816128cd565b92915050565b5f5ffd5b5f5ffd5b5f5ffd5b5f5f83601f840112612918576129176128f7565b5b8235905067ffffffffffffffff811115612935576129346128fb565b5b602083019150836001820283011115612951576129506128ff565b5b9250929050565b5f5f5f5f606085870312156129705761296f612508565b5b5f61297d87828801612807565b945050602061298e878288016128e3565b935050604085013567ffffffffffffffff8111156129af576129ae61250c565b5b6129bb87828801612903565b925092505092959194509250565b5f5f83601f8401126129de576129dd6128f7565b5b8235905067ffffffffffffffff8111156129fb576129fa6128fb565b5b602083019150836001820283011115612a1757612a166128ff565b5b9250929050565b5f5f5f5f60608587031215612a3657612a35612508565b5b5f612a4387828801612807565b9450506020612a54878288016128e3565b935050604085013567ffffffffffffffff811115612a7557612a7461250c565b5b612a81878288016129c9565b925092505092959194509250565b5f5f60208385031215612aa557612aa4612508565b5b5f83013567ffffffffffffffff811115612ac257612ac161250c565b5b612ace85828601612903565b92509250509250929050565b7f4e487b71000000000000000000000000000000000000000000000000000000005f52602160045260245ffd5b60058110612b1857612b17612ada565b5b50565b5f819050612b2882612b07565b919050565b5f612b3782612b1b565b9050919050565b612b4781612b2d565b82525050565b5f602082019050612b605f830184612b3e565b92915050565b5f60208284031215612b7b57612b7a612508565b5b5f612b888482850161279f565b91505092915050565b7f4f6e6c79206465706f7369746f720000000000000000000000000000000000005f82015250565b5f612bc5600e836126b3565b9150612bd082612b91565b602082019050919050565b5f6020820190508181035f830152612bf281612bb9565b9050919050565b7f496e76616c6964206576616c7561746f720000000000000000000000000000005f82015250565b5f612c2d6011836126b3565b9150612c3882612bf9565b602082019050919050565b5f6020820190508181035f830152612c5a81612c21565b9050919050565b7f4e487b71000000000000000000000000000000000000000000000000000000005f52602260045260245ffd5b5f6002820490506001821680612ca557607f821691505b602082108103612cb857612cb7612c61565b5b50919050565b7f4f6e6c79206465706f7369746f722063616e2066756e640000000000000000005f82015250565b5f612cf26017836126b3565b9150612cfd82612cbe565b602082019050919050565b5f6020820190508181035f830152612d1f81612ce6565b9050919050565b7f43616e6e6f74206465706f736974206e6f7700000000000000000000000000005f82015250565b5f612d5a6012836126b3565b9150612d6582612d26565b602082019050919050565b5f6020820190508181035f830152612d8781612d4e565b9050919050565b7f4e6f204554482073656e740000000000000000000000000000000000000000005f82015250565b5f612dc2600b836126b3565b9150612dcd82612d8e565b602082019050919050565b5f6020820190508181035f830152612def81612db6565b9050919050565b7f57726f6e6720746f6b656e0000000000000000000000000000000000000000005f82015250565b5f612e2a600b836126b3565b9150612e3582612df6565b602082019050919050565b5f6020820190508181035f830152612e5781612e1e565b9050919050565b7f5a65726f20616d6f756e740000000000000000000000000000000000000000005f82015250565b5f612e92600b836126b3565b9150612e9d82612e5e565b602082019050919050565b5f6020820190508181035f830152612ebf81612e86565b9050919050565b7f4e6f7420657870697265642079657400000000000000000000000000000000005f82015250565b5f612efa600f836126b3565b9150612f0582612ec6565b602082019050919050565b5f6020820190508181035f830152612f2781612eee565b9050919050565b7f43616e6e6f7420657870697265000000000000000000000000000000000000005f82015250565b5f612f62600d836126b3565b9150612f6d82612f2e565b602082019050919050565b5f6020820190508181035f830152612f8f81612f56565b9050919050565b7f4f6e6c79206576616c7561746f720000000000000000000000000000000000005f82015250565b5f612fca600e836126b3565b9150612fd582612f96565b602082019050919050565b5f6020820190508181035f830152612ff781612fbe565b9050919050565b7f556e6b6e6f776e207375626d697373696f6e00000000000000000000000000005f82015250565b5f6130326012836126b3565b915061303d82612ffe565b602082019050919050565b5f6020820190508181035f83015261305f81613026565b9050919050565b7f416c7265616479207265736f6c766564000000000000000000000000000000005f82015250565b5f61309a6010836126b3565b91506130a582613066565b602082019050919050565b5f6020820190508181035f8301526130c78161308e565b9050919050565b7f426f756e747920616c72656164792061776172646564000000000000000000005f82015250565b5f6131026016836126b3565b915061310d826130ce565b602082019050919050565b5f6020820190508181035f83015261312f816130f6565b9050919050565b5f5ffd5b7f4e487b71000000000000000000000000000000000000000000000000000000005f52604160045260245ffd5b613170826126d1565b810181811067ffffffffffffffff8211171561318f5761318e61313a565b5b80604052505050565b5f6131a16124ff565b90506131ad8282613167565b919050565b5f67ffffffffffffffff8211156131cc576131cb61313a565b5b6131d5826126d1565b9050602081019050919050565b828183375f83830152505050565b5f6132026131fd846131b2565b613198565b90508281526020810184848401111561321e5761321d613136565b5b6132298482856131e2565b509392505050565b5f82601f830112613245576132446128f7565b5b81356132558482602086016131f0565b91505092915050565b5f6020828403121561327357613272612508565b5b5f82013567ffffffffffffffff8111156132905761328f61250c565b5b61329c84828501613231565b91505092915050565b5f819050815f5260205f209050919050565b5f6020601f8301049050919050565b5f82821b905092915050565b5f600883026133017fffffffffffffffffffffffffffffffffffffffffffffffffffffffffffffffff826132c6565b61330b86836132c6565b95508019841693508086168417925050509392505050565b5f819050919050565b5f61334661334161333c8461246e565b613323565b61246e565b9050919050565b5f819050919050565b61335f8361332c565b61337361336b8261334d565b8484546132d2565b825550505050565b5f5f905090565b61338a61337b565b613395818484613356565b505050565b5b818110156133b8576133ad5f82613382565b60018101905061339b565b5050565b601f8211156133fd576133ce816132a5565b6133d7846132b7565b810160208510156133e6578190505b6133fa6133f2856132b7565b83018261339a565b50505b505050565b5f82821c905092915050565b5f61341d5f1984600802613402565b1980831691505092915050565b5f613435838361340e565b9150826002028217905092915050565b61344e826126a9565b67ffffffffffffffff8111156134675761346661313a565b5b6134718254612c8e565b61347c8282856133bc565b5f60209050601f8311600181146134ad575f841561349b578287015190505b6134a5858261342a565b86555061350c565b601f1984166134bb866132a5565b5f5b828110156134e2578489015182556001820191506020850194506020810190506134bd565b868310156134ff57848901516134fb601f89168261340e565b8355505b6001600288020188555050505b505050505050565b5f82825260208201905092915050565b5f61352f8385613514565b935061353c8385846131e2565b613545836126d1565b840190509392505050565b5f6040820190506135635f8301866125a1565b8181036020830152613576818486613524565b9050949350505050565b5f82905092915050565b6135948383613580565b67ffffffffffffffff8111156135ad576135ac61313a565b5b6135b78254612c8e565b6135c28282856133bc565b5f601f8311600181146135ef575f84156135dd578287013590505b6135e7858261342a565b86555061364e565b601f1984166135fd866132a5565b5f5b82811015613624578489013582556001820191506020850194506020810190506135ff565b86831015613641578489013561363d601f89168261340e565b8355505b6001600288020188555050505b50505050505050565b5f61366283856126b3565b935061366f8385846131e2565b613678836126d1565b840190509392505050565b5f6020820190508181035f83015261369c818486613657565b90509392505050565b5f81519050919050565b5f6136b9826136a5565b6136c38185613514565b93506136d38185602086016126c3565b6136dc816126d1565b840191505092915050565b5f6040820190506136fa5f8301856125a1565b818103602083015261370c81846136af565b90509392505050565b7f43616e6e6f742063616e63656c000000000000000000000000000000000000005f82015250565b5f613749600d836126b3565b915061375482613715565b602082019050919050565b5f6020820190508181035f8301526137768161373d565b9050919050565b7f426f756e7479206e6f74206f70656e00000000000000000000000000000000005f82015250565b5f6137b1600f836126b3565b91506137bc8261377d565b602082019050919050565b5f6020820190508181035f8301526137de816137a5565b9050919050565b7f426f756e747920657870697265640000000000000000000000000000000000005f82015250565b5f613819600e836126b3565b9150613824826137e5565b602082019050919050565b5f6020820190508181035f8301526138468161380d565b9050919050565b7f456d7074792055524c00000000000000000000000000000000000000000000005f82015250565b5f6138816009836126b3565b915061388c8261384d565b602082019050919050565b5f6020820190508181035f8301526138ae81613875565b9050919050565b5f8160601b9050919050565b5f6138cb826138b5565b9050919050565b5f6138dc826138c1565b9050919050565b6138f46138ef8261252f565b6138d2565b82525050565b5f81905092915050565b5f61390e826126a9565b61391881856138fa565b93506139288185602086016126c3565b80840191505092915050565b5f819050919050565b61394e6139498261246e565b613934565b82525050565b5f61395f82866138e3565b60148201915061396f8285613904565b915061397b828461393d565b602082019150819050949350505050565b7f4475706c6963617465207375626d697373696f6e0000000000000000000000005f82015250565b5f6139c06014836126b3565b91506139cb8261398c565b602082019050919050565b5f6020820190508181035f8301526139ed816139b4565b9050919050565b5f6020820190508181035f830152613a0d818486613524565b90509392505050565b5f81905092915050565b50565b5f613a2e5f83613a16565b9150613a3982613a20565b5f82019050919050565b5f613a4d82613a23565b9150819050919050565b7f45544820726566756e64206661696c65640000000000000000000000000000005f82015250565b5f613a8b6011836126b3565b9150613a9682613a57565b602082019050919050565b5f6020820190508181035f830152613ab881613a7f565b9050919050565b7f455448207472616e73666572206661696c6564000000000000000000000000005f82015250565b5f613af36013836126b3565b9150613afe82613abf565b602082019050919050565b5f6020820190508181035f830152613b2081613ae7565b905091905056fea26469706673582212207317adb4fd8b7d4a7cd2c67032a863b0a5d23a94f84c8fe82c6b873a6b1bb15164736f6c634300081c0033","linkReferences":{}},"methodIdentifiers":{"VERDICT_ACCEPT()":"7825ee44","VERDICT_REJECT()":"e8130fde","VERDICT_UNDETERMINED()":"d200e454","cancel()":"ea8a1af0","criteriaUrl()":"255aca2e","currentStatus()":"ef8a9235","deadline()":"29dcb0cf","deposit(address,uint256)":"47e7ef24","depositor()":"c7c4ff46","description()":"7284e416","escrowBalance()":"e11e1b0c","escrowToken()":"2fe319da","evaluator()":"9cb93dd1","expire()":"79599f96","getSubmission(bytes32)":"756dd3a4","getSubmissionIds()":"20135be6","prizeAmount()":"785fa627","resolve(bytes32,uint8,bytes)":"9bee40fe","resolveFromCourt(bytes32,uint8,string)":"c7645768","setEvaluator(address)":"02dbbbac","status()":"200d2ed2","submissionCount()":"6ec02be9","submissionIds(uint256)":"fe2932dd","submissions(bytes32)":"c5c9c0a2","submit(bytes)":"ef7fa71b","title()":"4a79d50c","winner()":"dfbf53ae","winningSubmission()":"417e5bc2"},"id":6}