{"abi":[{"type":"constructor","inputs":[{"name":"_agenticCommerce","type":"address","internalType":"address"}],"stateMutability":"nonpayable"},{"type":"function","name":"afterAction","inputs":[{"name":"jobId","type":"uint256","internalType":"uint256"},{"name":"selector","type":"bytes4","internalType":"bytes4"},{"name":"data","type":"bytes","internalType":"bytes"}],"outputs":[],"stateMutability":"nonpayable"},{"type":"function","name":"agenticCommerce","inputs":[],"outputs":[{"name":"","type":"address","internalType":"address"}],"stateMutability":"view"},{"type":"function","name":"beforeAction","inputs":[{"name":"jobId","type":"uint256","internalType":"uint256"},{"name":"selector","type":"bytes4","internalType":"bytes4"},{"name":"","type":"bytes","internalType":"bytes"}],"outputs":[],"stateMutability":"nonpayable"},{"type":"function","name":"getOutcome","inputs":[{"name":"jobId","type":"uint256","internalType":"uint256"}],"outputs":[{"name":"completed","type":"bool","internalType":"bool"},{"name":"reason","type":"bytes32","internalType":"bytes32"},{"name":"resolvedAt","type":"uint256","internalType":"uint256"}],"stateMutability":"view"},{"type":"function","name":"getProposal","inputs":[{"name":"jobId","type":"uint256","internalType":"uint256"}],"outputs":[{"name":"proposalUrl","type":"string","internalType":"string"},{"name":"proposalTitle","type":"string","internalType":"string"},{"name":"registeredAt","type":"uint256","internalType":"uint256"},{"name":"registered","type":"bool","internalType":"bool"}],"stateMutability":"view"},{"type":"function","name":"outcomes","inputs":[{"name":"","type":"uint256","internalType":"uint256"}],"outputs":[{"name":"jobId","type":"uint256","internalType":"uint256"},{"name":"completed","type":"bool","internalType":"bool"},{"name":"reason","type":"bytes32","internalType":"bytes32"},{"name":"resolvedAt","type":"uint256","internalType":"uint256"}],"stateMutability":"view"},{"type":"function","name":"owner","inputs":[],"outputs":[{"name":"","type":"address","internalType":"address"}],"stateMutability":"view"},{"type":"function","name":"registerProposal","inputs":[{"name":"jobId","type":"uint256","internalType":"uint256"},{"name":"proposalUrl","type":"string","internalType":"string"},{"name":"proposalTitle","type":"string","internalType":"string"}],"outputs":[],"stateMutability":"nonpayable"},{"type":"function","name":"stats","inputs":[],"outputs":[{"name":"completed","type":"uint256","internalType":"uint256"},{"name":"rejected","type":"uint256","internalType":"uint256"}],"stateMutability":"view"},{"type":"function","name":"submissions","inputs":[{"name":"","type":"uint256","internalType":"uint256"}],"outputs":[{"name":"proposalUrl","type":"string","internalType":"string"},{"name":"proposalTitle","type":"string","internalType":"string"},{"name":"registeredAt","type":"uint256","internalType":"uint256"},{"name":"registered","type":"bool","internalType":"bool"}],"stateMutability":"view"},{"type":"function","name":"totalCompleted","inputs":[],"outputs":[{"name":"","type":"uint256","internalType":"uint256"}],"stateMutability":"view"},{"type":"function","name":"totalRejected","inputs":[],"outputs":[{"name":"","type":"uint256","internalType":"uint256"}],"stateMutability":"view"},{"type":"event","name":"CourtVerdictApplied","inputs":[{"name":"jobId","type":"uint256","indexed":true,"internalType":"uint256"},{"name":"completed","type":"bool","indexed":false,"internalType":"bool"},{"name":"reason","type":"bytes32","indexed":false,"internalType":"bytes32"}],"anonymous":false},{"type":"event","name":"ProposalRegistered","inputs":[{"name":"jobId","type":"uint256","indexed":true,"internalType":"uint256"},{"name":"proposalUrl","type":"string","indexed":false,"internalType":"string"},{"name":"proposalTitle","type":"string","indexed":false,"internalType":"string"}],"anonymous":false}],"bytecode":{"object":"0x60a060405234801561000f575f5ffd5b5060405161198638038061198683398181016040528101906100319190610108565b8073ffffffffffffffffffffffffffffffffffffffff1660808173ffffffffffffffffffffffffffffffffffffffff1681525050335f5f6101000a81548173ffffffffffffffffffffffffffffffffffffffff021916908373ffffffffffffffffffffffffffffffffffffffff16021790555050610133565b5f5ffd5b5f73ffffffffffffffffffffffffffffffffffffffff82169050919050565b5f6100d7826100ae565b9050919050565b6100e7816100cd565b81146100f1575f5ffd5b50565b5f81519050610102816100de565b92915050565b5f6020828403121561011d5761011c6100aa565b5b5f61012a848285016100f4565b91505092915050565b60805161182d6101595f395f8181610494015281816108ed0152610abb015261182d5ff3fe608060405234801561000f575f5ffd5b50600436106100b2575f3560e01c8063c7f758a81161006f578063c7f758a81461017b578063cd579335146101ae578063d80528ae146101e0578063dc08fb1d146101ff578063eed2a1471461021b578063fe8729d51461024e576100b2565b8063072e1840146100b6578063545ccc75146100d45780638da5cb5b146100f0578063a3fe47831461010e578063ad73349e1461012a578063c1d369201461015d575b5f5ffd5b6100be61026c565b6040516100cb9190610c69565b60405180910390f35b6100ee60048036038101906100e99190610d1e565b610272565b005b6100f861046e565b6040516101059190610dee565b60405180910390f35b61012860048036038101906101239190610eb1565b610492565b005b610144600480360381019061013f9190610f22565b6107a7565b6040516101549493929190610fd7565b60405180910390f35b6101656108eb565b6040516101729190610dee565b60405180910390f35b61019560048036038101906101909190610f22565b61090f565b6040516101a59493929190610fd7565b60405180910390f35b6101c860048036038101906101c39190610f22565b610a69565b6040516101d793929190611040565b60405180910390f35b6101e8610aa9565b6040516101f6929190611075565b60405180910390f35b61021960048036038101906102149190610eb1565b610ab9565b005b61023560048036038101906102309190610f22565b610c13565b604051610245949392919061109c565b60405180910390f35b610256610c4b565b6040516102639190610c69565b60405180910390f35b60045481565b5f84849050116102b7576040517f08c379a00000000000000000000000000000000000000000000000000000000081526004016102ae90611129565b60405180910390fd5b60015f8681526020019081526020015f206003015f9054906101000a900460ff1615610318576040517f08c379a000000000000000000000000000000000000000000000000000000000815260040161030f90611191565b60405180910390fd5b604051806080016040528085858080601f0160208091040260200160405190810160405280939291908181526020018383808284375f81840152601f19601f82011690508083019250505050505050815260200183838080601f0160208091040260200160405190810160405280939291908181526020018383808284375f81840152601f19601f8201169050808301925050505050505081526020014281526020016001151581525060015f8781526020019081526020015f205f820151815f0190816103e691906113d9565b5060208201518160010190816103fc91906113d9565b50604082015181600201556060820151816003015f6101000a81548160ff021916908315150217905550905050847fdd98098692be7a3ed6250607bef1246b4e6d10d7398242214ca969a2da623eed8585858560405161045f94939291906114e2565b60405180910390a25050505050565b5f5f9054906101000a900473ffffffffffffffffffffffffffffffffffffffff1681565b7f000000000000000000000000000000000000000000000000000000000000000073ffffffffffffffffffffffffffffffffffffffff163373ffffffffffffffffffffffffffffffffffffffff1614610520576040517f08c379a000000000000000000000000000000000000000000000000000000000815260040161051790611565565b60405180910390fd5b7fd75bbdf377df4776cf95f2d19b294bfbee2eb48d8d96498ff44222031f3dc4347bffffffffffffffffffffffffffffffffffffffffffffffffffffffff1916837bffffffffffffffffffffffffffffffffffffffffffffffffffffffff191603610663575f8282810190610595919061169a565b50905060405180608001604052808681526020016001151581526020018281526020014281525060025f8781526020019081526020015f205f820151815f01556020820151816001015f6101000a81548160ff021916908315150217905550604082015181600201556060820151816003015590505060035f81548092919061061d90611721565b9190505550847fc0f2b8e773e0aba74b772a99924ac564e0d1ade1b8e85d82d55e1951f2fab555600183604051610655929190611768565b60405180910390a2506107a1565b7f41dd26f5ea329fe27f2f4164fec5ffb9f639430b5d99752a06eb5a82a10ee2617bffffffffffffffffffffffffffffffffffffffffffffffffffffffff1916837bffffffffffffffffffffffffffffffffffffffffffffffffffffffff1916036107a0575f82828101906106d8919061169a565b50905060405180608001604052808681526020015f151581526020018281526020014281525060025f8781526020019081526020015f205f820151815f01556020820151816001015f6101000a81548160ff021916908315150217905550604082015181600201556060820151816003015590505060045f81548092919061075f90611721565b9190505550847fc0f2b8e773e0aba74b772a99924ac564e0d1ade1b8e85d82d55e1951f2fab5555f83604051610796929190611768565b60405180910390a2505b5b50505050565b6001602052805f5260405f205f91509050805f0180546107c690611209565b80601f01602080910402602001604051908101604052809291908181526020018280546107f290611209565b801561083d5780601f106108145761010080835404028352916020019161083d565b820191905f5260205f20905b81548152906001019060200180831161082057829003601f168201915b50505050509080600101805461085290611209565b80601f016020809104026020016040519081016040528092919081815260200182805461087e90611209565b80156108c95780601f106108a0576101008083540402835291602001916108c9565b820191905f5260205f20905b8154815290600101906020018083116108ac57829003601f168201915b505050505090806002015490806003015f9054906101000a900460ff16905084565b7f000000000000000000000000000000000000000000000000000000000000000081565b6060805f5f5f60015f8781526020019081526020015f209050805f01816001018260020154836003015f9054906101000a900460ff1683805461095190611209565b80601f016020809104026020016040519081016040528092919081815260200182805461097d90611209565b80156109c85780601f1061099f576101008083540402835291602001916109c8565b820191905f5260205f20905b8154815290600101906020018083116109ab57829003601f168201915b505050505093508280546109db90611209565b80601f0160208091040260200160405190810160405280929190818152602001828054610a0790611209565b8015610a525780601f10610a2957610100808354040283529160200191610a52565b820191905f5260205f20905b815481529060010190602001808311610a3557829003601f168201915b505050505092509450945094509450509193509193565b5f5f5f5f60025f8681526020019081526020015f209050806001015f9054906101000a900460ff1681600201548260030154935093509350509193909250565b5f5f600354600454915091509091565b7f000000000000000000000000000000000000000000000000000000000000000073ffffffffffffffffffffffffffffffffffffffff163373ffffffffffffffffffffffffffffffffffffffff1614610b47576040517f08c379a0000000000000000000000000000000000000000000000000000000008152600401610b3e90611565565b60405180910390fd5b7f9e63798d46c0986060863351031b6fde7dc70fbc52cad215e5a3e7454c7521b07bffffffffffffffffffffffffffffffffffffffffffffffffffffffff1916837bffffffffffffffffffffffffffffffffffffffffffffffffffffffff191603610c0d5760015f8581526020019081526020015f206003015f9054906101000a900460ff16610c0c576040517f08c379a0000000000000000000000000000000000000000000000000000000008152600401610c03906117d9565b60405180910390fd5b5b50505050565b6002602052805f5260405f205f91509050805f015490806001015f9054906101000a900460ff16908060020154908060030154905084565b60035481565b5f819050919050565b610c6381610c51565b82525050565b5f602082019050610c7c5f830184610c5a565b92915050565b5f604051905090565b5f5ffd5b5f5ffd5b610c9c81610c51565b8114610ca6575f5ffd5b50565b5f81359050610cb781610c93565b92915050565b5f5ffd5b5f5ffd5b5f5ffd5b5f5f83601f840112610cde57610cdd610cbd565b5b8235905067ffffffffffffffff811115610cfb57610cfa610cc1565b5b602083019150836001820283011115610d1757610d16610cc5565b5b9250929050565b5f5f5f5f5f60608688031215610d3757610d36610c8b565b5b5f610d4488828901610ca9565b955050602086013567ffffffffffffffff811115610d6557610d64610c8f565b5b610d7188828901610cc9565b9450945050604086013567ffffffffffffffff811115610d9457610d93610c8f565b5b610da088828901610cc9565b92509250509295509295909350565b5f73ffffffffffffffffffffffffffffffffffffffff82169050919050565b5f610dd882610daf565b9050919050565b610de881610dce565b82525050565b5f602082019050610e015f830184610ddf565b92915050565b5f7fffffffff0000000000000000000000000000000000000000000000000000000082169050919050565b610e3b81610e07565b8114610e45575f5ffd5b50565b5f81359050610e5681610e32565b92915050565b5f5f83601f840112610e7157610e70610cbd565b5b8235905067ffffffffffffffff811115610e8e57610e8d610cc1565b5b602083019150836001820283011115610eaa57610ea9610cc5565b5b9250929050565b5f5f5f5f60608587031215610ec957610ec8610c8b565b5b5f610ed687828801610ca9565b9450506020610ee787828801610e48565b935050604085013567ffffffffffffffff811115610f0857610f07610c8f565b5b610f1487828801610e5c565b925092505092959194509250565b5f60208284031215610f3757610f36610c8b565b5b5f610f4484828501610ca9565b91505092915050565b5f81519050919050565b5f82825260208201905092915050565b8281835e5f83830152505050565b5f601f19601f8301169050919050565b5f610f8f82610f4d565b610f998185610f57565b9350610fa9818560208601610f67565b610fb281610f75565b840191505092915050565b5f8115159050919050565b610fd181610fbd565b82525050565b5f6080820190508181035f830152610fef8187610f85565b905081810360208301526110038186610f85565b90506110126040830185610c5a565b61101f6060830184610fc8565b95945050505050565b5f819050919050565b61103a81611028565b82525050565b5f6060820190506110535f830186610fc8565b6110606020830185611031565b61106d6040830184610c5a565b949350505050565b5f6040820190506110885f830185610c5a565b6110956020830184610c5a565b9392505050565b5f6080820190506110af5f830187610c5a565b6110bc6020830186610fc8565b6110c96040830185611031565b6110d66060830184610c5a565b95945050505050565b7f456d7074792055524c00000000000000000000000000000000000000000000005f82015250565b5f611113600983610f57565b915061111e826110df565b602082019050919050565b5f6020820190508181035f83015261114081611107565b9050919050565b7f416c7265616479207265676973746572656400000000000000000000000000005f82015250565b5f61117b601283610f57565b915061118682611147565b602082019050919050565b5f6020820190508181035f8301526111a88161116f565b9050919050565b7f4e487b71000000000000000000000000000000000000000000000000000000005f52604160045260245ffd5b7f4e487b71000000000000000000000000000000000000000000000000000000005f52602260045260245ffd5b5f600282049050600182168061122057607f821691505b602082108103611233576112326111dc565b5b50919050565b5f819050815f5260205f209050919050565b5f6020601f8301049050919050565b5f82821b905092915050565b5f600883026112957fffffffffffffffffffffffffffffffffffffffffffffffffffffffffffffffff8261125a565b61129f868361125a565b95508019841693508086168417925050509392505050565b5f819050919050565b5f6112da6112d56112d084610c51565b6112b7565b610c51565b9050919050565b5f819050919050565b6112f3836112c0565b6113076112ff826112e1565b848454611266565b825550505050565b5f5f905090565b61131e61130f565b6113298184846112ea565b505050565b5b8181101561134c576113415f82611316565b60018101905061132f565b5050565b601f8211156113915761136281611239565b61136b8461124b565b8101602085101561137a578190505b61138e6113868561124b565b83018261132e565b50505b505050565b5f82821c905092915050565b5f6113b15f1984600802611396565b1980831691505092915050565b5f6113c983836113a2565b9150826002028217905092915050565b6113e282610f4d565b67ffffffffffffffff8111156113fb576113fa6111af565b5b6114058254611209565b611410828285611350565b5f60209050601f831160018114611441575f841561142f578287015190505b61143985826113be565b8655506114a0565b601f19841661144f86611239565b5f5b8281101561147657848901518255600182019150602085019450602081019050611451565b86831015611493578489015161148f601f8916826113a2565b8355505b6001600288020188555050505b505050505050565b828183375f83830152505050565b5f6114c18385610f57565b93506114ce8385846114a8565b6114d783610f75565b840190509392505050565b5f6040820190508181035f8301526114fb8186886114b6565b905081810360208301526115108184866114b6565b905095945050505050565b7f4f6e6c792041435020636f6e74726163740000000000000000000000000000005f82015250565b5f61154f601183610f57565b915061155a8261151b565b602082019050919050565b5f6020820190508181035f83015261157c81611543565b9050919050565b61158c81611028565b8114611596575f5ffd5b50565b5f813590506115a781611583565b92915050565b5f5ffd5b6115ba82610f75565b810181811067ffffffffffffffff821117156115d9576115d86111af565b5b80604052505050565b5f6115eb610c82565b90506115f782826115b1565b919050565b5f67ffffffffffffffff821115611616576116156111af565b5b61161f82610f75565b9050602081019050919050565b5f61163e611639846115fc565b6115e2565b90508281526020810184848401111561165a576116596115ad565b5b6116658482856114a8565b509392505050565b5f82601f83011261168157611680610cbd565b5b813561169184826020860161162c565b91505092915050565b5f5f604083850312156116b0576116af610c8b565b5b5f6116bd85828601611599565b925050602083013567ffffffffffffffff8111156116de576116dd610c8f565b5b6116ea8582860161166d565b9150509250929050565b7f4e487b71000000000000000000000000000000000000000000000000000000005f52601160045260245ffd5b5f61172b82610c51565b91507fffffffffffffffffffffffffffffffffffffffffffffffffffffffffffffffff820361175d5761175c6116f4565b5b600182019050919050565b5f60408201905061177b5f830185610fc8565b6117886020830184611031565b9392505050565b7f52656769737465722070726f706f73616c2066697273740000000000000000005f82015250565b5f6117c3601783610f57565b91506117ce8261178f565b602082019050919050565b5f6020820190508181035f8301526117f0816117b7565b905091905056fea2646970667358221220d7f6f267a3d7c9726a12179f5922a91d4f279ef93693cad3be4e1346d750bfc964736f6c634300081c0033","linkReferences":{}},"methodIdentifiers":{"afterAction(uint256,bytes4,bytes)":"a3fe4783","agenticCommerce()":"c1d36920","beforeAction(uint256,bytes4,bytes)":"dc08fb1d","getOutcome(uint256)":"cd579335","getProposal(uint256)":"c7f758a8","outcomes(uint256)":"eed2a147","owner()":"8da5cb5b","registerProposal(uint256,string,string)":"545ccc75","stats()":"d80528ae","submissions(uint256)":"ad73349e","totalCompleted()":"fe8729d5","totalRejected()":"072e1840"},"id":9}