{"abi":[{"type":"constructor","inputs":[{"name":"_paymentToken","type":"address","internalType":"address"},{"name":"_treasury","type":"address","internalType":"address"},{"name":"_feeBps","type":"uint256","internalType":"uint256"}],"stateMutability":"nonpayable"},{"type":"function","name":"claimRefund","inputs":[{"name":"jobId","type":"uint256","internalType":"uint256"}],"outputs":[],"stateMutability":"nonpayable"},{"type":"function","name":"complete","inputs":[{"name":"jobId","type":"uint256","internalType":"uint256"},{"name":"reason","type":"bytes32","internalType":"bytes32"},{"name":"optParams","type":"bytes","internalType":"bytes"}],"outputs":[],"stateMutability":"nonpayable"},{"type":"function","name":"createJob","inputs":[{"name":"provider","type":"address","internalType":"address"},{"name":"evaluator","type":"address","internalType":"address"},{"name":"expiredAt","type":"uint256","internalType":"uint256"},{"name":"description","type":"string","internalType":"string"},{"name":"hook","type":"address","internalType":"address"}],"outputs":[{"name":"jobId","type":"uint256","internalType":"uint256"}],"stateMutability":"nonpayable"},{"type":"function","name":"feeBps","inputs":[],"outputs":[{"name":"","type":"uint256","internalType":"uint256"}],"stateMutability":"view"},{"type":"function","name":"fund","inputs":[{"name":"jobId","type":"uint256","internalType":"uint256"},{"name":"expectedBudget","type":"uint256","internalType":"uint256"},{"name":"optParams","type":"bytes","internalType":"bytes"}],"outputs":[],"stateMutability":"nonpayable"},{"type":"function","name":"getJob","inputs":[{"name":"jobId","type":"uint256","internalType":"uint256"}],"outputs":[{"name":"client","type":"address","internalType":"address"},{"name":"provider","type":"address","internalType":"address"},{"name":"evaluator","type":"address","internalType":"address"},{"name":"description","type":"string","internalType":"string"},{"name":"budget","type":"uint256","internalType":"uint256"},{"name":"expiredAt","type":"uint256","internalType":"uint256"},{"name":"status","type":"uint8","internalType":"enum IERC8183.Status"},{"name":"hook","type":"address","internalType":"address"},{"name":"deliverable","type":"bytes32","internalType":"bytes32"}],"stateMutability":"view"},{"type":"function","name":"jobCount","inputs":[],"outputs":[{"name":"","type":"uint256","internalType":"uint256"}],"stateMutability":"view"},{"type":"function","name":"jobs","inputs":[{"name":"","type":"uint256","internalType":"uint256"}],"outputs":[{"name":"client","type":"address","internalType":"address"},{"name":"provider","type":"address","internalType":"address"},{"name":"evaluator","type":"address","internalType":"address"},{"name":"description","type":"string","internalType":"string"},{"name":"budget","type":"uint256","internalType":"uint256"},{"name":"expiredAt","type":"uint256","internalType":"uint256"},{"name":"status","type":"uint8","internalType":"enum IERC8183.Status"},{"name":"hook","type":"address","internalType":"address"},{"name":"deliverable","type":"bytes32","internalType":"bytes32"}],"stateMutability":"view"},{"type":"function","name":"nextJobId","inputs":[],"outputs":[{"name":"","type":"uint256","internalType":"uint256"}],"stateMutability":"view"},{"type":"function","name":"paymentToken","inputs":[],"outputs":[{"name":"","type":"address","internalType":"contract IERC20"}],"stateMutability":"view"},{"type":"function","name":"reject","inputs":[{"name":"jobId","type":"uint256","internalType":"uint256"},{"name":"reason","type":"bytes32","internalType":"bytes32"},{"name":"optParams","type":"bytes","internalType":"bytes"}],"outputs":[],"stateMutability":"nonpayable"},{"type":"function","name":"setBudget","inputs":[{"name":"jobId","type":"uint256","internalType":"uint256"},{"name":"amount","type":"uint256","internalType":"uint256"},{"name":"optParams","type":"bytes","internalType":"bytes"}],"outputs":[],"stateMutability":"nonpayable"},{"type":"function","name":"setProvider","inputs":[{"name":"jobId","type":"uint256","internalType":"uint256"},{"name":"provider","type":"address","internalType":"address"},{"name":"optParams","type":"bytes","internalType":"bytes"}],"outputs":[],"stateMutability":"nonpayable"},{"type":"function","name":"submit","inputs":[{"name":"jobId","type":"uint256","internalType":"uint256"},{"name":"deliverable","type":"bytes32","internalType":"bytes32"},{"name":"optParams","type":"bytes","internalType":"bytes"}],"outputs":[],"stateMutability":"nonpayable"},{"type":"function","name":"treasury","inputs":[],"outputs":[{"name":"","type":"address","internalType":"address"}],"stateMutability":"view"},{"type":"event","name":"BudgetSet","inputs":[{"name":"jobId","type":"uint256","indexed":true,"internalType":"uint256"},{"name":"amount","type":"uint256","indexed":false,"internalType":"uint256"}],"anonymous":false},{"type":"event","name":"JobCompleted","inputs":[{"name":"jobId","type":"uint256","indexed":true,"internalType":"uint256"},{"name":"evaluator","type":"address","indexed":true,"internalType":"address"},{"name":"reason","type":"bytes32","indexed":false,"internalType":"bytes32"}],"anonymous":false},{"type":"event","name":"JobCreated","inputs":[{"name":"jobId","type":"uint256","indexed":true,"internalType":"uint256"},{"name":"client","type":"address","indexed":true,"internalType":"address"},{"name":"provider","type":"address","indexed":false,"internalType":"address"},{"name":"evaluator","type":"address","indexed":false,"internalType":"address"},{"name":"expiredAt","type":"uint256","indexed":false,"internalType":"uint256"}],"anonymous":false},{"type":"event","name":"JobExpired","inputs":[{"name":"jobId","type":"uint256","indexed":true,"internalType":"uint256"}],"anonymous":false},{"type":"event","name":"JobFunded","inputs":[{"name":"jobId","type":"uint256","indexed":true,"internalType":"uint256"},{"name":"client","type":"address","indexed":true,"internalType":"address"},{"name":"amount","type":"uint256","indexed":false,"internalType":"uint256"}],"anonymous":false},{"type":"event","name":"JobRejected","inputs":[{"name":"jobId","type":"uint256","indexed":true,"internalType":"uint256"},{"name":"rejector","type":"address","indexed":true,"internalType":"address"},{"name":"reason","type":"bytes32","indexed":false,"internalType":"bytes32"}],"anonymous":false},{"type":"event","name":"JobSubmitted","inputs":[{"name":"jobId","type":"uint256","indexed":true,"internalType":"uint256"},{"name":"provider","type":"address","indexed":true,"internalType":"address"},{"name":"deliverable","type":"bytes32","indexed":false,"internalType":"bytes32"}],"anonymous":false},{"type":"event","name":"PaymentReleased","inputs":[{"name":"jobId","type":"uint256","indexed":true,"internalType":"uint256"},{"name":"provider","type":"address","indexed":true,"internalType":"address"},{"name":"amount","type":"uint256","indexed":false,"internalType":"uint256"}],"anonymous":false},{"type":"event","name":"ProviderSet","inputs":[{"name":"jobId","type":"uint256","indexed":true,"internalType":"uint256"},{"name":"provider","type":"address","indexed":true,"internalType":"address"}],"anonymous":false},{"type":"event","name":"Refunded","inputs":[{"name":"jobId","type":"uint256","indexed":true,"internalType":"uint256"},{"name":"client","type":"address","indexed":true,"internalType":"address"},{"name":"amount","type":"uint256","indexed":false,"internalType":"uint256"}],"anonymous":false},{"type":"error","name":"ReentrancyGuardReentrantCall","inputs":[]},{"type":"error","name":"SafeERC20FailedOperation","inputs":[{"name":"token","type":"address","internalType":"address"}]}],"bytecode":{"object":"0x60a060405234801561000f575f5ffd5b50604051613b2f380380613b2f8339818101604052810190610031919061024d565b600161004f61004461018a60201b60201c565b6101b360201b60201c565b5f01819055505f73ffffffffffffffffffffffffffffffffffffffff168373ffffffffffffffffffffffffffffffffffffffff16036100c3576040517f08c379a00000000000000000000000000000000000000000000000000000000081526004016100ba906102f7565b60405180910390fd5b6103e8811115610108576040517f08c379a00000000000000000000000000000000000000000000000000000000081526004016100ff9061035f565b60405180910390fd5b8273ffffffffffffffffffffffffffffffffffffffff1660808173ffffffffffffffffffffffffffffffffffffffff1681525050815f5f6101000a81548173ffffffffffffffffffffffffffffffffffffffff021916908373ffffffffffffffffffffffffffffffffffffffff1602179055508060018190555050505061037d565b5f7f9b779b17422d0df92223018b32b4d1fa46e071723d6817e2486d003becc55f005f1b905090565b5f819050919050565b5f5ffd5b5f73ffffffffffffffffffffffffffffffffffffffff82169050919050565b5f6101e9826101c0565b9050919050565b6101f9816101df565b8114610203575f5ffd5b50565b5f81519050610214816101f0565b92915050565b5f819050919050565b61022c8161021a565b8114610236575f5ffd5b50565b5f8151905061024781610223565b92915050565b5f5f5f60608486031215610264576102636101bc565b5b5f61027186828701610206565b935050602061028286828701610206565b925050604061029386828701610239565b9150509250925092565b5f82825260208201905092915050565b7f496e76616c696420746f6b656e000000000000000000000000000000000000005f82015250565b5f6102e1600d8361029d565b91506102ec826102ad565b602082019050919050565b5f6020820190508181035f83015261030e816102d5565b9050919050565b7f46656520746f6f206869676800000000000000000000000000000000000000005f82015250565b5f610349600c8361029d565b915061035482610315565b602082019050919050565b5f6020820190508181035f8301526103768161033d565b9050919050565b6080516137776103b85f395f818161045201528181610b2001528181610ddd015281816118b101528181611c4b0152611cbe01526137775ff3fe608060405234801561000f575f5ffd5b50600436106100f3575f3560e01c806361d027b311610095578063c9a84bb911610064578063c9a84bb914610281578063d2e13f501461029d578063d75bbdf3146102b9578063dd4ae9d4146102d5576100f3565b806361d027b3146101f15780639e63798d1461020f578063b0c2aa5e1461022b578063bf22c45714610249576100f3565b806341528812116100d1578063415288121461016b57806341dd26f51461019b5780634c5d8a0f146101b75780635b7baf64146101d5576100f3565b8063180aedf3146100f757806324a9d8531461012f5780633013ce291461014d575b5f5ffd5b610111600480360381019061010c919061247f565b6102f1565b604051610126999897969594939291906125f3565b60405180910390f35b61013761044a565b6040516101449190612685565b60405180910390f35b610155610450565b60405161016291906126f9565b60405180910390f35b6101856004803603810190610180919061279d565b610474565b6040516101929190612685565b60405180910390f35b6101b560048036038101906101b091906128b2565b610818565b005b6101bf610c6e565b6040516101cc9190612685565b60405180910390f35b6101ef60048036038101906101ea919061247f565b610c77565b005b6101f9610ed0565b6040516102069190612923565b60405180910390f35b610229600480360381019061022491906128b2565b610ef4565b005b610233611136565b6040516102409190612685565b60405180910390f35b610263600480360381019061025e919061247f565b61113c565b604051610278999897969594939291906125f3565b60405180910390f35b61029b6004803603810190610296919061293c565b6112b8565b005b6102b760048036038101906102b291906129ad565b6115ee565b005b6102d360048036038101906102ce91906128b2565b6119dc565b005b6102ef60048036038101906102ea91906129ad565b611e0d565b005b6003602052805f5260405f205f91509050805f015f9054906101000a900473ffffffffffffffffffffffffffffffffffffffff1690806001015f9054906101000a900473ffffffffffffffffffffffffffffffffffffffff1690806002015f9054906101000a900473ffffffffffffffffffffffffffffffffffffffff169080600301805461037f90612a4b565b80601f01602080910402602001604051908101604052809291908181526020018280546103ab90612a4b565b80156103f65780601f106103cd576101008083540402835291602001916103f6565b820191905f5260205f20905b8154815290600101906020018083116103d957829003601f168201915b505050505090806004015490806005015490806006015f9054906101000a900460ff16908060060160019054906101000a900473ffffffffffffffffffffffffffffffffffffffff16908060070154905089565b60015481565b7f000000000000000000000000000000000000000000000000000000000000000081565b5f5f73ffffffffffffffffffffffffffffffffffffffff168673ffffffffffffffffffffffffffffffffffffffff16036104e3576040517f08c379a00000000000000000000000000000000000000000000000000000000081526004016104da90612ac5565b60405180910390fd5b428511610525576040517f08c379a000000000000000000000000000000000000000000000000000000000815260040161051c90612b2d565b60405180910390fd5b60025f81548092919061053790612b78565b9190505590506040518061012001604052803373ffffffffffffffffffffffffffffffffffffffff1681526020018873ffffffffffffffffffffffffffffffffffffffff1681526020018773ffffffffffffffffffffffffffffffffffffffff16815260200185858080601f0160208091040260200160405190810160405280939291908181526020018383808284375f81840152601f19601f8201169050808301925050505050505081526020015f81526020018681526020015f600581111561060557610604612568565b5b81526020018373ffffffffffffffffffffffffffffffffffffffff1681526020015f5f1b81525060035f8381526020019081526020015f205f820151815f015f6101000a81548173ffffffffffffffffffffffffffffffffffffffff021916908373ffffffffffffffffffffffffffffffffffffffff1602179055506020820151816001015f6101000a81548173ffffffffffffffffffffffffffffffffffffffff021916908373ffffffffffffffffffffffffffffffffffffffff1602179055506040820151816002015f6101000a81548173ffffffffffffffffffffffffffffffffffffffff021916908373ffffffffffffffffffffffffffffffffffffffff16021790555060608201518160030190816107229190612d83565b506080820151816004015560a0820151816005015560c0820151816006015f6101000a81548160ff0219169083600581111561076157610760612568565b5b021790555060e08201518160060160016101000a81548173ffffffffffffffffffffffffffffffffffffffff021916908373ffffffffffffffffffffffffffffffffffffffff16021790555061010082015181600701559050503373ffffffffffffffffffffffffffffffffffffffff16817fef137df1d007645178f3f70e5c306d8d0b84bb5c70cabda9bb0f8f3c71932a0f89898960405161080693929190612e52565b60405180910390a39695505050505050565b610820612046565b5f60035f8681526020019081526020015f2090505f816006015f9054906101000a900460ff1690505f600581111561085b5761085a612568565b5b81600581111561086e5761086d612568565b5b0361090857815f015f9054906101000a900473ffffffffffffffffffffffffffffffffffffffff1673ffffffffffffffffffffffffffffffffffffffff163373ffffffffffffffffffffffffffffffffffffffff1614610903576040517f08c379a00000000000000000000000000000000000000000000000000000000081526004016108fa90612ed1565b60405180910390fd5b610a36565b6001600581111561091c5761091b612568565b5b81600581111561092f5761092e612568565b5b148061095f57506002600581111561094a57610949612568565b5b81600581111561095d5761095c612568565b5b145b156109fa57816002015f9054906101000a900473ffffffffffffffffffffffffffffffffffffffff1673ffffffffffffffffffffffffffffffffffffffff163373ffffffffffffffffffffffffffffffffffffffff16146109f5576040517f08c379a00000000000000000000000000000000000000000000000000000000081526004016109ec90612f5f565b60405180910390fd5b610a35565b6040517f08c379a0000000000000000000000000000000000000000000000000000000008152600401610a2c90612fc7565b60405180910390fd5b5b610a6b866341dd26f560e01b878787604051602001610a579392919061302f565b604051602081830303815290604052612068565b6004826006015f6101000a81548160ff02191690836005811115610a9257610a91612568565b5b021790555060016005811115610aab57610aaa612568565b5b816005811115610abe57610abd612568565b5b1480610aee575060026005811115610ad957610ad8612568565b5b816005811115610aec57610aeb612568565b5b145b15610bda57610b64825f015f9054906101000a900473ffffffffffffffffffffffffffffffffffffffff1683600401547f000000000000000000000000000000000000000000000000000000000000000073ffffffffffffffffffffffffffffffffffffffff166121449092919063ffffffff16565b815f015f9054906101000a900473ffffffffffffffffffffffffffffffffffffffff1673ffffffffffffffffffffffffffffffffffffffff16867f7ca5472b7ea78c2c0141c5a12ee6d170cf4ce8ed06be3d22c8252ddfc7a6a2c48460040154604051610bd19190612685565b60405180910390a35b3373ffffffffffffffffffffffffffffffffffffffff16867fae7362b1af91f4492868987b9c73990d780060811551b58728fbe96fd1bab27587604051610c21919061305f565b60405180910390a3610c5e866341dd26f560e01b878787604051602001610c4a9392919061302f565b604051602081830303815290604052612197565b5050610c68612273565b50505050565b5f600254905090565b610c7f612046565b5f60035f8381526020019081526020015f2090505f816006015f9054906101000a900460ff16905060016005811115610cbb57610cba612568565b5b816005811115610cce57610ccd612568565b5b1480610cfe575060026005811115610ce957610ce8612568565b5b816005811115610cfc57610cfb612568565b5b145b610d3d576040517f08c379a0000000000000000000000000000000000000000000000000000000008152600401610d34906130c2565b60405180910390fd5b8160050154421015610d84576040517f08c379a0000000000000000000000000000000000000000000000000000000008152600401610d7b9061312a565b60405180910390fd5b6005826006015f6101000a81548160ff02191690836005811115610dab57610daa612568565b5b0217905550610e21825f015f9054906101000a900473ffffffffffffffffffffffffffffffffffffffff1683600401547f000000000000000000000000000000000000000000000000000000000000000073ffffffffffffffffffffffffffffffffffffffff166121449092919063ffffffff16565b827f97237956f8810192811e2c3f273fd02c5d6295206fdd9c62e6fe2bfc19ba923260405160405180910390a2815f015f9054906101000a900473ffffffffffffffffffffffffffffffffffffffff1673ffffffffffffffffffffffffffffffffffffffff16837f7ca5472b7ea78c2c0141c5a12ee6d170cf4ce8ed06be3d22c8252ddfc7a6a2c48460040154604051610ebb9190612685565b60405180910390a35050610ecd612273565b50565b5f5f9054906101000a900473ffffffffffffffffffffffffffffffffffffffff1681565b8360035f8281526020019081526020015f206001015f9054906101000a900473ffffffffffffffffffffffffffffffffffffffff1673ffffffffffffffffffffffffffffffffffffffff163373ffffffffffffffffffffffffffffffffffffffff1614610f96576040517f08c379a0000000000000000000000000000000000000000000000000000000008152600401610f8d90613192565b60405180910390fd5b846001806005811115610fac57610fab612568565b5b60035f8481526020019081526020015f206006015f9054906101000a900460ff166005811115610fdf57610fde612568565b5b1461101f576040517f08c379a0000000000000000000000000000000000000000000000000000000008152600401611016906131fa565b60405180910390fd5b61105487639e63798d60e01b8888886040516020016110409392919061302f565b604051602081830303815290604052612068565b8560035f8981526020019081526020015f2060070181905550600260035f8981526020019081526020015f206006015f6101000a81548160ff021916908360058111156110a4576110a3612568565b5b02179055503373ffffffffffffffffffffffffffffffffffffffff16877f80c17db79857f338a6a6df68a6883ecc0ce78e2202fe61ed979733573f40538e886040516110f0919061305f565b60405180910390a361112d87639e63798d60e01b8888886040516020016111199392919061302f565b604051602081830303815290604052612197565b50505050505050565b60025481565b5f5f5f60605f5f5f5f5f5f60035f8c81526020019081526020015f209050805f015f9054906101000a900473ffffffffffffffffffffffffffffffffffffffff16816001015f9054906101000a900473ffffffffffffffffffffffffffffffffffffffff16826002015f9054906101000a900473ffffffffffffffffffffffffffffffffffffffff168360030184600401548560050154866006015f9054906101000a900460ff168760060160019054906101000a900473ffffffffffffffffffffffffffffffffffffffff16886007015485805461121a90612a4b565b80601f016020809104026020016040519081016040528092919081815260200182805461124690612a4b565b80156112915780601f1061126857610100808354040283529160200191611291565b820191905f5260205f20905b81548152906001019060200180831161127457829003601f168201915b50505050509550995099509950995099509950995099509950509193959799909294969850565b8360035f8281526020019081526020015f205f015f9054906101000a900473ffffffffffffffffffffffffffffffffffffffff1673ffffffffffffffffffffffffffffffffffffffff163373ffffffffffffffffffffffffffffffffffffffff1614611359576040517f08c379a000000000000000000000000000000000000000000000000000000000815260040161135090613262565b60405180910390fd5b845f80600581111561136e5761136d612568565b5b60035f8481526020019081526020015f206006015f9054906101000a900460ff1660058111156113a1576113a0612568565b5b146113e1576040517f08c379a00000000000000000000000000000000000000000000000000000000081526004016113d8906131fa565b60405180910390fd5b5f60035f8981526020019081526020015f2090505f73ffffffffffffffffffffffffffffffffffffffff16816001015f9054906101000a900473ffffffffffffffffffffffffffffffffffffffff1673ffffffffffffffffffffffffffffffffffffffff1614611486576040517f08c379a000000000000000000000000000000000000000000000000000000000815260040161147d906132ca565b60405180910390fd5b5f73ffffffffffffffffffffffffffffffffffffffff168773ffffffffffffffffffffffffffffffffffffffff16036114f4576040517f08c379a00000000000000000000000000000000000000000000000000000000081526004016114eb90613332565b60405180910390fd5b6115298863c9a84bb960e01b89898960405160200161151593929190613350565b604051602081830303815290604052612068565b86816001015f6101000a81548173ffffffffffffffffffffffffffffffffffffffff021916908373ffffffffffffffffffffffffffffffffffffffff1602179055508673ffffffffffffffffffffffffffffffffffffffff16887f9a87df076ea1725aba8ba29d32517ce37c9597d88cbf16ec6707892cc330ab6960405160405180910390a36115e48863c9a84bb960e01b8989896040516020016115d093929190613350565b604051602081830303815290604052612197565b5050505050505050565b6115f6612046565b8360035f8281526020019081526020015f205f015f9054906101000a900473ffffffffffffffffffffffffffffffffffffffff1673ffffffffffffffffffffffffffffffffffffffff163373ffffffffffffffffffffffffffffffffffffffff1614611697576040517f08c379a000000000000000000000000000000000000000000000000000000000815260040161168e90613262565b60405180910390fd5b845f8060058111156116ac576116ab612568565b5b60035f8481526020019081526020015f206006015f9054906101000a900460ff1660058111156116df576116de612568565b5b1461171f576040517f08c379a0000000000000000000000000000000000000000000000000000000008152600401611716906131fa565b60405180910390fd5b5f60035f8981526020019081526020015f2090505f73ffffffffffffffffffffffffffffffffffffffff16816001015f9054906101000a900473ffffffffffffffffffffffffffffffffffffffff1673ffffffffffffffffffffffffffffffffffffffff16036117c4576040517f08c379a00000000000000000000000000000000000000000000000000000000081526004016117bb906133ca565b60405180910390fd5b5f81600401541161180a576040517f08c379a000000000000000000000000000000000000000000000000000000000815260040161180190613432565b60405180910390fd5b86816004015414611850576040517f08c379a00000000000000000000000000000000000000000000000000000000081526004016118479061349a565b60405180910390fd5b6118a58863d2e13f5060e01b88888080601f0160208091040260200160405190810160405280939291908181526020018383808284375f81840152601f19601f82011690508083019250505050505050612068565b6118f6333083600401547f000000000000000000000000000000000000000000000000000000000000000073ffffffffffffffffffffffffffffffffffffffff1661228d909392919063ffffffff16565b6001816006015f6101000a81548160ff0219169083600581111561191d5761191c612568565b5b02179055503373ffffffffffffffffffffffffffffffffffffffff16887fe3fbcc1ea1bdc559ec7f0347efde7655e58b5f45a30b0e4470a583c3ef5496b3836004015460405161196d9190612685565b60405180910390a36119ca8863d2e13f5060e01b88888080601f0160208091040260200160405190810160405280939291908181526020018383808284375f81840152601f19601f82011690508083019250505050505050612197565b505050506119d6612273565b50505050565b6119e4612046565b8360035f8281526020019081526020015f206002015f9054906101000a900473ffffffffffffffffffffffffffffffffffffffff1673ffffffffffffffffffffffffffffffffffffffff163373ffffffffffffffffffffffffffffffffffffffff1614611a86576040517f08c379a0000000000000000000000000000000000000000000000000000000008152600401611a7d90613502565b60405180910390fd5b846002806005811115611a9c57611a9b612568565b5b60035f8481526020019081526020015f206006015f9054906101000a900460ff166005811115611acf57611ace612568565b5b14611b0f576040517f08c379a0000000000000000000000000000000000000000000000000000000008152600401611b06906131fa565b60405180910390fd5b5f60035f8981526020019081526020015f209050611b588863d75bbdf360e01b898989604051602001611b449392919061302f565b604051602081830303815290604052612068565b6003816006015f6101000a81548160ff02191690836005811115611b7f57611b7e612568565b5b02179055505f5f600154118015611be257505f73ffffffffffffffffffffffffffffffffffffffff165f5f9054906101000a900473ffffffffffffffffffffffffffffffffffffffff1673ffffffffffffffffffffffffffffffffffffffff1614155b611bec575f611c0c565b6127106001548360040154611c019190613520565b611c0b919061358e565b5b90505f818360040154611c1f91906135be565b9050611c8f836001015f9054906101000a900473ffffffffffffffffffffffffffffffffffffffff16827f000000000000000000000000000000000000000000000000000000000000000073ffffffffffffffffffffffffffffffffffffffff166121449092919063ffffffff16565b5f821115611d0357611d025f5f9054906101000a900473ffffffffffffffffffffffffffffffffffffffff16837f000000000000000000000000000000000000000000000000000000000000000073ffffffffffffffffffffffffffffffffffffffff166121449092919063ffffffff16565b5b3373ffffffffffffffffffffffffffffffffffffffff168a7f0fd54bd364fa9e67f17b091aefe930932c09fe7651cf5ad02c71a418f33414448b604051611d4a919061305f565b60405180910390a3826001015f9054906101000a900473ffffffffffffffffffffffffffffffffffffffff1673ffffffffffffffffffffffffffffffffffffffff168a7f21d71db5be59bb9fa133895586b7404307dd33fb93b16db09dc6f1d9d7d231b083604051611dbc9190612685565b60405180910390a3611df98a63d75bbdf360e01b8b8b8b604051602001611de59392919061302f565b604051602081830303815290604052612197565b505050505050611e07612273565b50505050565b835f806005811115611e2257611e21612568565b5b60035f8481526020019081526020015f206006015f9054906101000a900460ff166005811115611e5557611e54612568565b5b14611e95576040517f08c379a0000000000000000000000000000000000000000000000000000000008152600401611e8c906131fa565b60405180910390fd5b5f60035f8881526020019081526020015f209050805f015f9054906101000a900473ffffffffffffffffffffffffffffffffffffffff1673ffffffffffffffffffffffffffffffffffffffff163373ffffffffffffffffffffffffffffffffffffffff161480611f535750806001015f9054906101000a900473ffffffffffffffffffffffffffffffffffffffff1673ffffffffffffffffffffffffffffffffffffffff163373ffffffffffffffffffffffffffffffffffffffff16145b611f92576040517f08c379a0000000000000000000000000000000000000000000000000000000008152600401611f899061363b565b60405180910390fd5b611fc78763dd4ae9d460e01b888888604051602001611fb393929190613659565b604051602081830303815290604052612068565b858160040181905550867f869e2577b006bf47ee981cf6fec2e25583548081c14b98deab587f77b5068038876040516120009190612685565b60405180910390a261203d8763dd4ae9d460e01b88888860405160200161202993929190613659565b604051602081830303815290604052612197565b50505050505050565b61204e6122e2565b600261206061205b612323565b61234c565b5f0181905550565b5f60035f8581526020019081526020015f2060060160019054906101000a900473ffffffffffffffffffffffffffffffffffffffff1690505f73ffffffffffffffffffffffffffffffffffffffff168173ffffffffffffffffffffffffffffffffffffffff161461213e578073ffffffffffffffffffffffffffffffffffffffff1663dc08fb1d8585856040518463ffffffff1660e01b815260040161211093929190613705565b5f604051808303815f87803b158015612127575f5ffd5b505af1158015612139573d5f5f3e3d5ffd5b505050505b50505050565b6121518383836001612355565b61219257826040517f5274afe70000000000000000000000000000000000000000000000000000000081526004016121899190612923565b60405180910390fd5b505050565b5f60035f8581526020019081526020015f2060060160019054906101000a900473ffffffffffffffffffffffffffffffffffffffff1690505f73ffffffffffffffffffffffffffffffffffffffff168173ffffffffffffffffffffffffffffffffffffffff161461226d578073ffffffffffffffffffffffffffffffffffffffff1663a3fe47838585856040518463ffffffff1660e01b815260040161223f93929190613705565b5f604051808303815f87803b158015612256575f5ffd5b505af1158015612268573d5f5f3e3d5ffd5b505050505b50505050565b6001612285612280612323565b61234c565b5f0181905550565b61229b8484848460016123b7565b6122dc57836040517f5274afe70000000000000000000000000000000000000000000000000000000081526004016122d39190612923565b60405180910390fd5b50505050565b6122ea612428565b15612321576040517f3ee5aeb500000000000000000000000000000000000000000000000000000000815260040160405180910390fd5b565b5f7f9b779b17422d0df92223018b32b4d1fa46e071723d6817e2486d003becc55f005f1b905090565b5f819050919050565b5f5f63a9059cbb60e01b9050604051815f525f1960601c86166004528460245260205f60445f5f8b5af1925060015f511483166123a957838315161561239d573d5f823e3d81fd5b5f873b113d1516831692505b806040525050949350505050565b5f5f6323b872dd60e01b9050604051815f525f1960601c87166004525f1960601c86166024528460445260205f60645f5f8c5af1925060015f51148316612415578383151615612409573d5f823e3d81fd5b5f883b113d1516831692505b806040525f606052505095945050505050565b5f600261243b612436612323565b61234c565b5f015414905090565b5f5ffd5b5f5ffd5b5f819050919050565b61245e8161244c565b8114612468575f5ffd5b50565b5f8135905061247981612455565b92915050565b5f6020828403121561249457612493612444565b5b5f6124a18482850161246b565b91505092915050565b5f73ffffffffffffffffffffffffffffffffffffffff82169050919050565b5f6124d3826124aa565b9050919050565b6124e3816124c9565b82525050565b5f81519050919050565b5f82825260208201905092915050565b8281835e5f83830152505050565b5f601f19601f8301169050919050565b5f61252b826124e9565b61253581856124f3565b9350612545818560208601612503565b61254e81612511565b840191505092915050565b6125628161244c565b82525050565b7f4e487b71000000000000000000000000000000000000000000000000000000005f52602160045260245ffd5b600681106125a6576125a5612568565b5b50565b5f8190506125b682612595565b919050565b5f6125c5826125a9565b9050919050565b6125d5816125bb565b82525050565b5f819050919050565b6125ed816125db565b82525050565b5f610120820190506126075f83018c6124da565b612614602083018b6124da565b612621604083018a6124da565b81810360608301526126338189612521565b90506126426080830188612559565b61264f60a0830187612559565b61265c60c08301866125cc565b61266960e08301856124da565b6126776101008301846125e4565b9a9950505050505050505050565b5f6020820190506126985f830184612559565b92915050565b5f819050919050565b5f6126c16126bc6126b7846124aa565b61269e565b6124aa565b9050919050565b5f6126d2826126a7565b9050919050565b5f6126e3826126c8565b9050919050565b6126f3816126d9565b82525050565b5f60208201905061270c5f8301846126ea565b92915050565b61271b816124c9565b8114612725575f5ffd5b50565b5f8135905061273681612712565b92915050565b5f5ffd5b5f5ffd5b5f5ffd5b5f5f83601f84011261275d5761275c61273c565b5b8235905067ffffffffffffffff81111561277a57612779612740565b5b60208301915083600182028301111561279657612795612744565b5b9250929050565b5f5f5f5f5f5f60a087890312156127b7576127b6612444565b5b5f6127c489828a01612728565b96505060206127d589828a01612728565b95505060406127e689828a0161246b565b945050606087013567ffffffffffffffff81111561280757612806612448565b5b61281389828a01612748565b9350935050608061282689828a01612728565b9150509295509295509295565b61283c816125db565b8114612846575f5ffd5b50565b5f8135905061285781612833565b92915050565b5f5f83601f8401126128725761287161273c565b5b8235905067ffffffffffffffff81111561288f5761288e612740565b5b6020830191508360018202830111156128ab576128aa612744565b5b9250929050565b5f5f5f5f606085870312156128ca576128c9612444565b5b5f6128d78782880161246b565b94505060206128e887828801612849565b935050604085013567ffffffffffffffff81111561290957612908612448565b5b6129158782880161285d565b925092505092959194509250565b5f6020820190506129365f8301846124da565b92915050565b5f5f5f5f6060858703121561295457612953612444565b5b5f6129618782880161246b565b945050602061297287828801612728565b935050604085013567ffffffffffffffff81111561299357612992612448565b5b61299f8782880161285d565b925092505092959194509250565b5f5f5f5f606085870312156129c5576129c4612444565b5b5f6129d28782880161246b565b94505060206129e38782880161246b565b935050604085013567ffffffffffffffff811115612a0457612a03612448565b5b612a108782880161285d565b925092505092959194509250565b7f4e487b71000000000000000000000000000000000000000000000000000000005f52602260045260245ffd5b5f6002820490506001821680612a6257607f821691505b602082108103612a7557612a74612a1e565b5b50919050565b7f4576616c7561746f7220726571756972656400000000000000000000000000005f82015250565b5f612aaf6012836124f3565b9150612aba82612a7b565b602082019050919050565b5f6020820190508181035f830152612adc81612aa3565b9050919050565b7f457870697279206d7573742062652066757475726500000000000000000000005f82015250565b5f612b176015836124f3565b9150612b2282612ae3565b602082019050919050565b5f6020820190508181035f830152612b4481612b0b565b9050919050565b7f4e487b71000000000000000000000000000000000000000000000000000000005f52601160045260245ffd5b5f612b828261244c565b91507fffffffffffffffffffffffffffffffffffffffffffffffffffffffffffffffff8203612bb457612bb3612b4b565b5b600182019050919050565b7f4e487b71000000000000000000000000000000000000000000000000000000005f52604160045260245ffd5b5f819050815f5260205f209050919050565b5f6020601f8301049050919050565b5f82821b905092915050565b5f60088302612c487fffffffffffffffffffffffffffffffffffffffffffffffffffffffffffffffff82612c0d565b612c528683612c0d565b95508019841693508086168417925050509392505050565b5f612c84612c7f612c7a8461244c565b61269e565b61244c565b9050919050565b5f819050919050565b612c9d83612c6a565b612cb1612ca982612c8b565b848454612c19565b825550505050565b5f5f905090565b612cc8612cb9565b612cd3818484612c94565b505050565b5b81811015612cf657612ceb5f82612cc0565b600181019050612cd9565b5050565b601f821115612d3b57612d0c81612bec565b612d1584612bfe565b81016020851015612d24578190505b612d38612d3085612bfe565b830182612cd8565b50505b505050565b5f82821c905092915050565b5f612d5b5f1984600802612d40565b1980831691505092915050565b5f612d738383612d4c565b9150826002028217905092915050565b612d8c826124e9565b67ffffffffffffffff811115612da557612da4612bbf565b5b612daf8254612a4b565b612dba828285612cfa565b5f60209050601f831160018114612deb575f8415612dd9578287015190505b612de38582612d68565b865550612e4a565b601f198416612df986612bec565b5f5b82811015612e2057848901518255600182019150602085019450602081019050612dfb565b86831015612e3d5784890151612e39601f891682612d4c565b8355505b6001600288020188555050505b505050505050565b5f606082019050612e655f8301866124da565b612e7260208301856124da565b612e7f6040830184612559565b949350505050565b7f4f6e6c7920636c69656e74207768656e204f70656e00000000000000000000005f82015250565b5f612ebb6015836124f3565b9150612ec682612e87565b602082019050919050565b5f6020820190508181035f830152612ee881612eaf565b9050919050565b7f4f6e6c79206576616c7561746f72207768656e2046756e6465642f5375626d695f8201527f7474656400000000000000000000000000000000000000000000000000000000602082015250565b5f612f496024836124f3565b9150612f5482612eef565b604082019050919050565b5f6020820190508181035f830152612f7681612f3d565b9050919050565b7f496e76616c69642073746174757320666f722072656a656374000000000000005f82015250565b5f612fb16019836124f3565b9150612fbc82612f7d565b602082019050919050565b5f6020820190508181035f830152612fde81612fa5565b9050919050565b5f82825260208201905092915050565b828183375f83830152505050565b5f61300e8385612fe5565b935061301b838584612ff5565b61302483612511565b840190509392505050565b5f6040820190506130425f8301866125e4565b8181036020830152613055818486613003565b9050949350505050565b5f6020820190506130725f8301846125e4565b92915050565b7f4e6f7420726566756e6461626c650000000000000000000000000000000000005f82015250565b5f6130ac600e836124f3565b91506130b782613078565b602082019050919050565b5f6020820190508181035f8301526130d9816130a0565b9050919050565b7f4e6f7420657870697265642079657400000000000000000000000000000000005f82015250565b5f613114600f836124f3565b915061311f826130e0565b602082019050919050565b5f6020820190508181035f83015261314181613108565b9050919050565b7f4e6f742070726f766964657200000000000000000000000000000000000000005f82015250565b5f61317c600c836124f3565b915061318782613148565b602082019050919050565b5f6020820190508181035f8301526131a981613170565b9050919050565b7f496e76616c6964207374617475730000000000000000000000000000000000005f82015250565b5f6131e4600e836124f3565b91506131ef826131b0565b602082019050919050565b5f6020820190508181035f830152613211816131d8565b9050919050565b7f4e6f7420636c69656e74000000000000000000000000000000000000000000005f82015250565b5f61324c600a836124f3565b915061325782613218565b602082019050919050565b5f6020820190508181035f83015261327981613240565b9050919050565b7f50726f766964657220616c7265616479207365740000000000000000000000005f82015250565b5f6132b46014836124f3565b91506132bf82613280565b602082019050919050565b5f6020820190508181035f8301526132e1816132a8565b9050919050565b7f496e76616c69642070726f7669646572000000000000000000000000000000005f82015250565b5f61331c6010836124f3565b9150613327826132e8565b602082019050919050565b5f6020820190508181035f83015261334981613310565b9050919050565b5f6040820190506133635f8301866124da565b8181036020830152613376818486613003565b9050949350505050565b7f50726f7669646572206e6f7420736574000000000000000000000000000000005f82015250565b5f6133b46010836124f3565b91506133bf82613380565b602082019050919050565b5f6020820190508181035f8301526133e1816133a8565b9050919050565b7f427564676574206e6f74207365740000000000000000000000000000000000005f82015250565b5f61341c600e836124f3565b9150613427826133e8565b602082019050919050565b5f6020820190508181035f83015261344981613410565b9050919050565b7f427564676574206d69736d6174636800000000000000000000000000000000005f82015250565b5f613484600f836124f3565b915061348f82613450565b602082019050919050565b5f6020820190508181035f8301526134b181613478565b9050919050565b7f4e6f74206576616c7561746f72000000000000000000000000000000000000005f82015250565b5f6134ec600d836124f3565b91506134f7826134b8565b602082019050919050565b5f6020820190508181035f830152613519816134e0565b9050919050565b5f61352a8261244c565b91506135358361244c565b92508282026135438161244c565b9150828204841483151761355a57613559612b4b565b5b5092915050565b7f4e487b71000000000000000000000000000000000000000000000000000000005f52601260045260245ffd5b5f6135988261244c565b91506135a38361244c565b9250826135b3576135b2613561565b5b828204905092915050565b5f6135c88261244c565b91506135d38361244c565b92508282039050818111156135eb576135ea612b4b565b5b92915050565b7f4e6f7420636c69656e74206f722070726f7669646572000000000000000000005f82015250565b5f6136256016836124f3565b9150613630826135f1565b602082019050919050565b5f6020820190508181035f83015261365281613619565b9050919050565b5f60408201905061366c5f830186612559565b818103602083015261367f818486613003565b9050949350505050565b5f7fffffffff0000000000000000000000000000000000000000000000000000000082169050919050565b6136bd81613689565b82525050565b5f81519050919050565b5f6136d7826136c3565b6136e18185612fe5565b93506136f1818560208601612503565b6136fa81612511565b840191505092915050565b5f6060820190506137185f830186612559565b61372560208301856136b4565b818103604083015261373781846136cd565b905094935050505056fea26469706673582212209ce0c361a32449a1a71b01851c4d3a3c41772ad499d52e540a7d0460c1f2df1264736f6c634300081c0033","linkReferences":{}},"methodIdentifiers":{"claimRefund(uint256)":"5b7baf64","complete(uint256,bytes32,bytes)":"d75bbdf3","createJob(address,address,uint256,string,address)":"41528812","feeBps()":"24a9d853","fund(uint256,uint256,bytes)":"d2e13f50","getJob(uint256)":"bf22c457","jobCount()":"4c5d8a0f","jobs(uint256)":"180aedf3","nextJobId()":"b0c2aa5e","paymentToken()":"3013ce29","reject(uint256,bytes32,bytes)":"41dd26f5","setBudget(uint256,uint256,bytes)":"dd4ae9d4","setProvider(uint256,address,bytes)":"c9a84bb9","submit(uint256,bytes32,bytes)":"9e63798d","treasury()":"61d027b3"},"id":8}